:020000040800F2
:100000000838002049010008E92200081D1F0008E7
:10001000E5220008D50D0008B732000800000000F6
:10002000000000000000000000000000BD280008E3
:10003000C31600080000000019240008352B000832
:100040006301000863010008630100086301000800
:1000500063010008630100086301000863010008F0
:1000600063010008630100086301000863010008E0
:1000700063010008630100086301000863010008D0
:1000800063010008630100086301000863010008C0
:1000900063010008630100086301000863010008B0
:1000A00063010008630100086301000863010008A0
:1000B0009D2B0008D92B000863010008630100088C
:1000C0006301000863010008630100086301000880
:1000D00063010008552F0008630100086301000850
:1000E0006301000863010008630100086301000860
:1000F0006301000863010008630100086301000850
:100100006301000863010008012C00086301000876
:10011000630100086301000863010008630100082F
:100120006301000863010008FD1300086301000873
:10013000DFF810D000F04EFD00480047F93B000802
:10014000AFF3008008380020064880470648004783
:10015000FEE7FEE7FEE7FEE7FEE7FEE7FEE7FEE777
:10016000FEE7FEE73D2B0008310100082DE9FF4FB7
:1001700095B00C464168009181680F91006813901A
:100180001898179D800814900F98006809900F9890
:1001900050F8041F089150F8041F079150F8041FED
:1001A0000B91416808300A910F900098D0E9006BDC
:1001B000D0E90289DDF850A0BAF1000F7DD000BF70
:1001C00054F8040B069049460A9800F096F90C90F2
:1001D00041460B9800F091F903905946079800F0BA
:1001E0008CF907463146089800F087F98146069950
:1001F000099800F082F9494600F027F9394600F0E5
:1002000024F9039900F021F90C9900F01EF945F842
:10021000040B074654F804BB41460A9800F06DF9F8
:100220000C9039460B9800F068F9804631460798E3
:1002300000F063F981460699089800F05EF90646D9
:100240005946099800F059F9314600F0FEF8494640
:1002500000F0FBF8414600F0F8F80C9900F0F5F8D2
:1002600045F8040B804654F8046B39460A9800F0B0
:1002700044F90E9041460B9800F03FF90C90DDE9EF
:10028000061000F03AF981465946089800F035F911
:1002900007463146099800F030F9394600F0D5F8A4
:1002A000494600F0D2F80C9900F0CFF80E9900F012
:1002B000CCF8814645F8040B00E02EE054F8047BAE
:1002C00041460A9800F019F90C9049460B9800F045
:1002D00014F90E905946079800F00FF983463146FD
:1002E000089800F00AF980463946099800F005F9A7
:1002F000414600F0AAF8594600F0A7F80E9900F020
:10030000A4F80C9900F0A1F8B346804645F8040B18
:100310003E46BAF1010A7FF453AF189810F0030774
:1003200032D0B7F1004F44D2002F2DDD54F804AB8A
:1003300049460A9800F0E1F80C9041460B9800F00D
:10034000DCF803905946079800F0D7F88346314609
:10035000089800F0D2F881465146099800F0CDF88F
:10036000494600F072F8594600F06FF8039900F022
:100370006CF80C9900F069F8B346C14645F8040BD7
:10038000564680467F1ED1D100980660009840F8FE
:1003900004BF40F8048FC0F8049008300090139810
:1003A000179C401E254613907FF4EEAE19B0BDE8B1
:1003B000F08F54F804AB49460A9800F09EF80C9070
:1003C00041460B9800F099F803905946079800F0C1
:1003D00094F883463146089800F08FF881465146DC
:1003E000099800F08AF8494600F02FF8594600F0C5
:1003F0002CF8039900F029F80C9900F026F8B34680
:10040000C14645F8040B564680467F1ED1D1BBE756
:1004100070B58260016004461D460901184600F06F
:1004200009F8656070BDD2B201E000F8012B491EE9
:10043000FBD270470022F6E710B513460A46044681
:100440001946FFF7F0FF204610BDF0B480EA010224
:10045000D40F4200B2EB410F02D2024608461146C9
:100460004A0042D0C30DDDB2C1F3C752AD1A202DF0
:1004700035DAC1F3160141F4000204B15242C5F16C
:10048000200602FA06F12A411044B3EBD05F23D0D4
:10049000C4B1012DA0EBC35009DCF0BC4FF0004209
:1004A00002EAC352DBB200F5000000F0F0BA4000EF
:1004B00000F1807000EBC350A0F1807040EAD17071
:1004C000490009E0490841EAC071A0EBC35000F5BA
:1004D0000000400800EBC350F0BC00F0CFBA61420E
:1004E000012202EB4101001BF6E7F0BC704781F0EE
:1004F0000041AAE780F00040A7E780EA010210B5BA
:1005000002F00043400022D04A001FD0010E01EB50
:100510001261C0F35600C2F3560240F4000042F4E8
:100520000002A0FB022000047F39140400D0401C0C
:1005300050EA124001D44000491EC2B20C0604EB3E
:10054000D010401C4008802A02D003E0002010BDDB
:1005500020F00100002900DA0020184310BD2DE929
:10056000FE4F804681EA0300C00F0C46009021F048
:10057000004123F00045B8EB0200A94105D24046F6
:10058000214690461C460B46024623F0004010438D
:1005900047D0270DC7F30A00C3F30A510290401A4F
:1005A000019040286BDAC3F3130040F4801B0098DD
:1005B000924620B10023D2EB030A63EB0B0B0198A8
:1005C0005946C0F14002504600F027FA06460D4653
:1005D00050465946019A00F03FFA10EB080061417D
:1005E000002487EA115284EAE7731A4340D0009A44
:1005F00062B3019A012A4FEA075215DC001B61EB36
:1006000002014FF0004202EA0752CDE90042001C0D
:1006100041F5801132462B4600F076FA03B0BDE872
:10062000F08F40462146F9E7001B61EB0201001CF8
:1006300041F5801300185B412018A2F5001747EB25
:10064000030140EAD570B6196D4111E06D084FEA1B
:10065000360645EAC0754FEA0752001B61EB0201FE
:10066000001C41F5801149084FEA30000019514142
:1006700032462B4603B0BDE8F04F00F036BA009882
:10068000012240000023D0EB020263EBE0730098EC
:1006900021464FEAE074B8EB000061EB0401E9E7A2
:1006A00083F000435BE781F0004158E72DE9FE4FFE
:1006B00081EA030404F0004421F0004100944FF06B
:1006C000000B23F0004350EA01045ED052EA030419
:1006D0005BD0C3F30A54C1F30A552C44A4F2F3349B
:1006E0000194A0FB0254C1F3130141F48011C3F340
:1006F000130343F4801301FB024400FB034E840AFE
:10070000970A44EA815447EA8357A4FB0768029595
:100710008D0A05FB07854FEA932C04FB0C54270533
:10072000029D4FEA065847EA1637B5EB08056EEB0F
:10073000070C870E920E47EA811742EA8312A7FB45
:100740000201B6EB0B0164EB00042B0D43EA0C3302
:100750005E1844EB1C50DA465146E7FB0201C5F334
:1007600013044FEA0B3343EA14534FEA0432019C5B
:1007700043EA0603A4F10C040294009CCDE900B402
:1007800000F0C2F903B0BDE8F08F00200146F9E7A0
:100790002DE9F04D81EA030404F0004B21F00045FF
:1007A00014464FF0000A23F0004150EA050220D021
:1007B00054EA01021DD0C5F30A570246C5F31303DC
:1007C000C1F31300C1F30A5640F4801543F48013BB
:1007D000A7EB0608101BD64608F2FD3873EB0500A0
:1007E00002D308F1010801E092185B41B8F1000F53
:1007F00003DA00200146BDE8F08D00204FF480119F
:10080000064684460EE0171B73EB050705D3121B43
:1008100063EB050306434CEA010C49084FEA30003C
:1008200092185B4150EA0107EDD152EA030012D061
:1008300082EA040083EA0501084305D0101BAB419E
:1008400006D20122002306E000224FF0004302E01E
:100850006FF0010253101AEB06004CEB085110EB3D
:100860000A0041EB0B01BDE8F04D00F03EB90EB5BA
:10087000C10F80EAE0700844CA07002140F2334308
:100880008DE80E000A460B4600F03EF903B000BDAD
:100890000EB540F2334102910021CDE900110A4624
:1008A0000B4600F031F903B000BD70B5C1F30A5238
:1008B00001F000450024C1F3130140F2FF3341F47D
:1008C00080119A4201DA002070BD40F233439A420F
:1008D000A2F2334203DC524200F0AEF800E0904056
:1008E0002C43F1D0404270BD00F0004230F0004097
:1008F0000AD0C10D01F56071C0F3160042EA015142
:10090000C2084007114370470020014670470000AD
:1009100030B5041E71F1000404DB4FF00044404286
:1009200064EB0101141E73F1000405DB1C464FF05B
:100930000043524263EB0403994208BF904230BD2A
:1009400001F0004330B421F0004150EA010206D02A
:100950000A0DA2F56072C1F31301002A02DC30BC5B
:1009600000207047440F44EAC104C100E01830BCC5
:1009700000EBC25000F082B8002801DBC0F100405B
:10098000002901DBC1F100418842704730B50B46B8
:10099000014600202022012409E021FA02F59D42AF
:1009A00005D303FA02F5491B04FA02F52844151E83
:1009B000A2F10102F1DC30BD2DE9F05F0546002017
:1009C00092469B4688460646814640241BE02846C0
:1009D00041464746224600F02FF853465A46C01A71
:1009E000914110D311461846224600F016F82D1AF0
:1009F00067EB01084F4622460120002100F00DF868
:100A000017EB00094E41201EA4F10104DFDC48462B
:100A100031462A464346BDE8F09F202A04DB203AAF
:100A200000FA02F1002070479140C2F1200320FA41
:100A300003F3194390407047202A04DB203A21FA3F
:100A400002F00021704721FA02F3D040C2F12002E7
:100A50009140084319467047202A06DBCB17203AFD
:100A600041FA02F043EAE07306E041FA02F3D040B3
:100A7000C2F1200291400843194670470029A8BFDF
:100A80007047401C490008BF20F00100704710B4B7
:100A9000B0FA80FC00FA0CF050EA010404BF10BC6C
:100AA000704749B1CCF1200421FA04F411FA0CF199
:100AB00018BF012121430843A3EB0C01CB1D4FEAD2
:100AC00000614FEA102042BF002010BC704700EBCD
:100AD000C35010440029A4BF10BC7047401C4900FB
:100AE00008BF20F0010010BC704710B5141E73F150
:100AF000000408DA401C41F1000192185B411A43DE
:100B000001D120F0010010BD2DE9F04D92469B4629
:100B100011B1B1FA81F202E0B0FA80F220329046CF
:100B2000FFF77BFF04460F4640EA0A0041EA0B014B
:100B300053465A46084313D0114653EA010019D0D0
:100B4000C8F140025046FFF777FF05460E46504673
:100B500059464246FFF761FF084305D0012004E0F3
:100B600020463946BDE8F08D0020054346EAE07690
:100B70002C4337430A986305E40AA0EB08000022DF
:100B8000FD0A44EA47540A3002D500200146E9E74D
:100B9000010510196941DDE9084500196941BDE801
:100BA000F04DA2E7C1F30A52C1F3130140F2FF3343
:100BB00041F480119A4202DA00200146704740F267
:100BC00033439A42A2F2334202DC5242FFF734BF6F
:100BD000FFF723BF064C074D06E0E06840F0010335
:100BE00094E8070098471034AC42F6D3FFF7A4FA14
:100BF000D43D0008F43D000870B58C1810F8015B76
:100C000015F0070301D110F8013B2A1106D110F8A5
:100C1000012B03E010F8016B01F8016B5B1EF9D1A9
:100C20002B0705D40023521E0DD401F8013BFAE72F
:100C300010F8013BCB1A921C03E013F8015B01F89A
:100C4000015B521EF9D5A142D8D3002070BD21B15D
:100C5000826842F00102826003E0826822F00102B1
:100C60008260704721B1826842F48072826003E042
:100C7000826822F480728260704721B1826842F4F7
:100C80008012826003E0826822F4801282607047E2
:100C9000014600208A6802F004020AB1012000E047
:100CA00000207047014600208A6802F008020AB15D
:100CB000012000E00020704730B5024600200023EC
:100CC00050680F4C20400D790C6844EA05242043FD
:100CD000506090680B4C2040D1E902542C434D7970
:100CE00044EA450420439060D06A20F470000C7CF4
:100CF000641EE4B2234340EA0350D06230BD0000DA
:100D0000FFFEF0FFFDF7F1FFF0B504460D460020B1
:100D10000021092D11DDE068A5F10A0606EB460762
:100D2000072606FA07F18843A5F10A0606EB4606F0
:100D300003FA06F10843E0600CE0206905EB450783
:100D4000072606FA07F1884305EB450603FA06F184
:100D500008432061072A0FDA606B561E06EB8607F0
:100D60001F2606FA07F18843561E06EB860605FA8B
:100D700006F10843606322E00D2A0FDA206BD61FCC
:100D800006EB86071F2606FA07F18843D61F06EBF7
:100D9000860605FA06F10843206310E0E06AA2F136
:100DA0000D0606EB86071F2606FA07F18843A2F117
:100DB0000D0606EB860605FA06F10843E062F0BD73
:100DC000816841F0080181607047816841F0040149
:100DD0008160704700BFFEE700200149087070473E
:100DE0002B00002000200149087070472A000020D5
:100DF00000B587B04FF4004001F09EFB012148028E
:100E000001F0D6FB0121102001F0D2FB1020ADF83B
:100E1000180000208DF81B0006A91E4800F0BAFF3C
:100E20000020019001208DF8080000208DF80900B5
:100E30004FF4002003900020049001208DF814004E
:100E400001A91548FFF738FF072301220E21124898
:100E5000FFF75AFF01211048FFF704FF01210E4858
:100E6000FFF70BFF01210C48FFF7F1FE0A48FFF7DF
:100E7000A7FF00BF0848FFF715FF0028FAD1064872
:100E8000FFF7A3FF00BF0448FFF702FF0028FAD1D5
:100E900007B000BD000801400024014000B585B046
:100EA0000121042001F084FB0121480701F060FBCF
:100EB0001020ADF8100003208DF8120000208DF8EE
:100EC000130004A90C4800F065FF2C2000900020BE
:100ED000019002900390694600F066FA012100201B
:100EE00000F04CFA0021084600F078FA01210020B9
:100EF00000F030FA05B000BD0008014000B58BB02D
:100F00000121084601F024FB114800F0B1FA114814
:100F100000901148019000200290012003900020D1
:100F200004908020059040000690800007902020CB
:100F30000890C001099000200A906946044800F01A
:100F40005CFB0121024800F087FA0BB000BD0000F5
:100F5000080002404C2401409402002003B58DB0EB
:100F60000121022001F0F4FA1A4800F081FA1A482F
:100F700002900D9803900E98059010200490002088
:100F80000690802007904000089080000990202063
:100F90000A9000020B9000200C9002A90D4800F06E
:100FA0002CFB3A208DF8040000208DF805008DF808
:100FB000060001208DF8070001A801F0A3F9012225
:100FC0000221044800F010FB0121024800F044FA1D
:100FD0000FB000BD300402400874004008B5012184
:100FE000102001F0E5FA4FF40050ADF800000320A6
:100FF0008DF8020010208DF8030069460A4800F0C1
:10100000C9FE0121042001F0D3FA8020ADF80000D0
:1010100003208DF8020028208DF80300694603485C
:1010200000F0B8FE08BD00000010014000080140BB
:1010300008B50121042001F0BBFA0121102001F0C4
:10104000B7FA0220ADF8000048208DF80300694689
:101050000B4800F09FFE0420ADF8000048208DF8FA
:1010600003006946064800F095FE0120ADF8000037
:1010700048208DF803006946024800F08BFE08BD49
:10108000001001400008014008B50121102001F0C6
:101090008FFA2020ADF8000003208DF80200102008
:1010A0008DF803006946044800F074FE00222021F8
:1010B000014800F00CFF08BD0010014010B54FF4CE
:1010C000A06001F057F910BD10B501F091FA4FF48E
:1010D000803001F04FFB01F0ABFB0446012C24D122
:1010E000102000F03DFE022000F048FE002001F03C
:1010F00035FB002001F070FBA00201F061FB4FF412
:10110000E011200401F07AFB012001F071FB00BF27
:10111000392001F0FDFA0028FAD0022001F07CFB12
:1011200000BF01F013FB0828FBD110BD7FB50546B9
:101130000C460121084601F01BFAADF80850ADF845
:1011400004400020ADF80A00ADF8060001A94FF0F8
:10115000804001F0A1FE01221146900701F089FEB6
:101160001C208DF8000000208DF8010003208DF870
:10117000020001208DF80300684601F0C3F8012148
:10118000880701F064FD7FBD7FB505460C4601214F
:10119000022001F0EDF9ADF80850ADF80440002050
:1011A000ADF80A00ADF8060001A90F4801F074FE81
:1011B00020210D4801F066FE012211460A4801F087
:1011C00058FE1D208DF8000001208DF801008DF8DB
:1011D00002008DF80300684601F094F801210248EE
:1011E00001F035FD7FBD0000000400403EB505461E
:1011F0000C460121042001F0BBF90C4801F034FD3C
:10120000ADF80450ADF800400020ADF80600ADF890
:1012100002006946054801F03FFE2021034801F025
:1012200031FE0121014801F012FD3EBD00080040E1
:101230007FB505460C460121082001F099F9ADF86B
:101240000850ADF804400020ADF80A00ADF80600E3
:1012500001A90E4801F020FE012211460B4801F0C1
:1012600008FE32208DF8000000208DF801000320D8
:101270008DF8020001208DF80300684601F042F865
:101280000121024801F0E3FC7FBD0000000C00409A
:1012900010B586B004460121880301F089F90121C7
:1012A000042001F085F94FF40070ADF81400182007
:1012B0008DF8170003208DF8160005A9224800F0CC
:1012C00069FD4FF48060ADF8140004208DF817001C
:1012D00005A91D4800F05EFD01A801F07CFF019406
:1012E0000020ADF80800ADF80A00ADF80C000C20A5
:1012F000ADF80E000020ADF8100001A9134801F070
:10130000F5FE25208DF8000001208DF801008DF8F4
:1013100002008DF80300684600F0F4FF012240F25D
:1013200025510A4801F0BDFE012240F2277107480D
:1013300001F0B7FE0121054801F070FE00200449CC
:10134000087006B010BD00000008014000380140E0
:101350003000002039B1084A1268012383401A4343
:10136000054B1A6006E0044A1268012383409A4341
:10137000014B1A60704700000074004041B1094AF7
:1013800012684FF4805383401A43064B1A6007E0FB
:10139000044A12684FF4805383409A43014B1A6009
:1013A000704700000074004030B5002200230A4C52
:1013B000226840F6FE748440A243D1E900452C43E4
:1013C0008D682C43CD6844EA050303FA00F42243F8
:1013D000014C226030BD00000074004008B50022BE
:1013E0000092054A009200F10802009B1A44009204
:1013F000009A116008BD00000074004010B50B4851
:1014000000F0DCF880B13A2000F01F020121914089
:10141000074A430942F8231000BF064800F00EF8BF
:10142000054803C8FFF79AFD10BD00000002001038
:1014300080E200E0000100103400002000F0805144
:1014400011B10349086001E002494860704700009B
:10145000040402400000024021B1026842F001028F
:10146000026004E002684FF6FE731A4002607047A3
:1014700001684FF6FE721140016000210160416079
:101480008160C1604B49884208D14A49083949689E
:1014900041F00F01474A083A51608AE0454914314A
:1014A000884208D143490839496841F0F001414A6E
:1014B000083A51607DE03F492831884208D13D49D2
:1014C0000839496841F470613A4A083A516070E05D
:1014D00038493C31884208D136490839496841F4D5
:1014E0007041344A083A516063E0324950318842D1
:1014F00008D130490839496841F470212D4A083A29
:10150000516056E02B496431884208D12949083995
:10151000496841F47001274A083A516049E0254979
:101520007831884208D123490839496841F070610F
:10153000204A083A51603CE01F49884206D1011F09
:10154000096841F00F01021F116032E01A4914319D
:10155000884208D11849091F096841F0F001164A6C
:10156000121F116025E014492831884208D1124920
:10157000091F096841F470610F4A121F116018E0D9
:101580000D493C31884208D10B49091F096841F4D3
:101590007041094A121F11600BE00749503188421F
:1015A00007D10549091F096841F47021024A121F39
:1015B0001160704708000240080402400146002004
:1015C000002201F0805313B1054B1A6801E0054B6E
:1015D0001A6802EA01030BB1012000E00020704705
:1015E00000040240000002401AB103680B4303608C
:1015F00002E003688B430360704710B50022026865
:1016000047F6F0739A430C6A8B6823430C692343B3
:101610004C6923438C692343CC6923434C6A23439D
:101620008C6A23431A430260CB6843600B68836073
:101630004B68C36010BD30B50346002016E0B3F917
:1016400000509C68645D0C541C88641C24B21C808F
:10165000B3F90040B3F90450AC4201DB00241C8014
:10166000441C20B2DC88641E24B2DC80B3F906403E
:10167000002C01DD9042E2DB30BD30B50346002096
:1016800018E0B3F900509C6834F8154021F8104078
:101690001C88641C24B21C80B3F90040B3F90450C8
:1016A000AC4201DB00241C80441C20B2DC88641E98
:1016B00024B2DC80B3F90640002C01DD9042E0DB6F
:1016C00030BD70472DE9F84311480078401C10499F
:1016D000087008460078012818DB684601F0C4F855
:1016E00088B1BDF80000FFF7D3F805460022094B8A
:1016F000FEF7DCFF0746FFF723F9044606480749D3
:10170000098840F82140002001490870BDE8F883AD
:101710000B0000200000F03FD40200200600002053
:1017200010B5044608480078302802D0312805D189
:1017300000E007E0204600F015F803E003A001F008
:10174000EDFD00BF00BF10BD100000204552524FFC
:10175000523AC2CBB2A8C6F7D1A1D4F1B4EDCEF3C0
:10176000000000002DE9FF4104462068FFF7BCF8A7
:1017700005460E4602274FF001081048104943461F
:101780003A46CDE90256CDE900100E490E4800F068
:10179000C7FB05460E4628463146FFF7D1F82060C4
:1017A0000123224621460948FEF7E0FC084920684B
:1017B0000968FEF7A2FE2060BDE8FF81A822002094
:1017C00048220020603C0008403C0008182200200D
:1017D000140000202DE9F0478146CA46002400BFCE
:1017E00013E00D4800EBC4000B49D0E90053601C26
:1017F00001EBC0002A46D0E900713846FEF750FFE1
:10180000064A02EBC40203C2641CA9F10100A04213
:10181000E7DC5046BDE8F08750230020D02A0020A6
:101820002DE9FC5F04464FF00009CA46012C06DC96
:1018300000211E481E4AC2E90010BDE8FC9F4FF07F
:10184000000A13E04846FFF712F80546194800EB76
:10185000CA00D0E900733A462846FEF780FECDE97B
:101860000001FFF722F881460AF1010AA245E9DBEF
:10187000B9F1000F04DC00200C490D4A03C2DCE77B
:1018800099FBF4FB5846FEF7F2FF05460A4A0B4B5C
:10189000FEF70CFF07463A460B4600200849FEF7C4
:1018A00077FF034A03C200BFC7E700000000F0BF94
:1018B00018000020D02A0020FCA9F1D24D62603F20
:1018C00000004E402DE9F04705460E464FF0000956
:1018D000002400BF2DE01B4951F82400FFF704F855
:1018E00007462A463346FFF713F821D8621E154BE8
:1018F00053F822101A4652F82400FFF73DF817D289
:10190000104B621C53F822101A4652F82400FFF7BD
:1019100033F80DD2B9F1F00F00DB0EE02046FEF7F0
:10192000A6FF4A4609F10109074B03EBC20203C2B5
:10193000641C40F2CF708442CDDB00BF4846BDE856
:10194000F0870000D4020020502300202DE9F0474A
:1019500016490868FEF7C8FF04460D4600BF4FF061
:10196000000A00BF13E0114951F82A00FEF7BCFF3E
:10197000804622462B46FEF7CBFF06D20B4951F894
:101980002A00FEF7B1FF04460D460AF1010ABAF536
:10199000FA6FE8DB064A074B20462946FEF786FE2B
:1019A00006460F4630463946BDE8F087D40200208F
:1019B0000AD7A3703D0AEF3F10B503480CC803A037
:1019C00001F0ACFC10BD0000180000205B5B322C65
:1019D000256C665D5D0D0A002DE9F04100BF002415
:1019E0000025FFF7B3FF06460F4630463946FFF79E
:1019F00069FF04462046FFF7EDFE05462846FFF73F
:101A00000FFFFFF7D9FFBDE8F081000010B5FFF729
:101A1000E5FA01200549087005A001F07FFC07A048
:101A200001F07CFC09A001F079FC10BD0800002049
:101A30007B7B322C48527D7D0D0A00007B7B332C52
:101A40004852466C61677D7D0D0A00007B7B342C1B
:101A500046696C7465727D7D0D0A000010B58021A9
:101A6000124800F022FA01280AD111480078002813
:101A700019D101200E4908700EA001F04FFC12E0B0
:101A800080210A4800F011FA50B90948007801286D
:101A900009D10020064908700DA001F03FFC02E0CA
:101AA00010A001F03BFC0248007810BD0008014086
:101AB000090000204552524F52A3BAD0C4B5E7B531
:101AC000BCC1AAC3BBBDD3C9CFC5B60A00000000C4
:101AD000494E464F3AB5BCC1AAD2D1C1ACBDD30A1A
:101AE000000000005741524E494E473AB5BCC1AACA
:101AF000D2FDBDC5D7B4CCACBCECB2E2D2ECB3A342
:101B00000A00000010B1012808D103E00021054AB5
:101B1000117004E00121034A117000E000BF00BF12
:101B2000704700000800002001480078704700005E
:101B30000800002010B51448007880B913480078D8
:101B400001281ED100201149087000224FF40051D5
:101B50000F4800F0BCF90FA001F0E0FB11E00A48CB
:101B6000007801280DD10948007850B901200749B3
:101B7000087001224103064800F0A9F90BA001F00A
:101B8000CDFB0248007810BD080000200A000020AC
:101B900000100140494E464FA3BAD0C4B5E7D0C5A6
:101BA000BAC5D5B9CABEBFAACABC0A00494E464F7B
:101BB000A3BAD0C4B5E7D0C5BAC5D5B9CABECDA3FE
:101BC000D6B90A0010B5FFF749FF012800D110BDB2
:101BD000FFF7B0FF012800D1F9E7FFF773FD1B49BC
:101BE0001B4A128801EB8200FFF79AFD00F03AF8D9
:101BF00017480088401C1649088008460088B0F540
:101C0000FA6F20DBFFF7E8FE002011490880114839
:101C10000078302802D0312814D10AE00D4800782D
:101C2000401C0C490870084601780BA001F076FBB7
:101C300008E03020074908700846017806A001F046
:101C40006DFB00BF00BF00BFC1E70000D402002051
:101C5000060000200D0000205B5B332C25635D5DDA
:101C60000D0A000070B50D480078401C0B49087043
:101C70000846007801280FDB09490A4A128851F802
:101C80002200FEF731FE044622460B4606A001F074
:101C900045FB00200149087070BD00000C000020C9
:101CA000D40200200600002025660A0070B5034615
:101CB000002016E00C5CB3F902609D68AC555C88AE
:101CC000641C24B25C80B3F90240B3F90450AC4206
:101CD00001DB00245C80441C20B2DC88641C24B23C
:101CE000DC80B3F90640B3F90450AC4201DA90420B
:101CF000E0DB70BD70B50346002018E031F81040FD
:101D0000B3F902609D6825F816405C88641C24B213
:101D10005C80B3F90240B3F90450AC4201DB00240B
:101D20005C80441C20B2DC88641C24B2DC80B3F9E3
:101D30000640B3F90450AC4201DA9042DEDB70BDDC
:101D400010B5012004490870012240F227710348B0
:101D500001F0A7F910BD000030000020003801405C
:101D60000549096821F01001034A1160114609680C
:101D7000014311607047000000200240014600202E
:101D8000034A106800F038000843106070470000F4
:101D9000002002402DE9F0410246002500260020E7
:101DA00000230024002791F803C00CF00F0591F8E0
:101DB00003C00CF0100CBCF1000F03D091F802C06E
:101DC0004CEA050591F800C0BCF1000F31D0146851
:101DD00000202BE04FF0010C0CFA00F3B1F800C02A
:101DE0000CEA03069E4220D183004FF00F0C0CFA40
:101DF00003F7BC4305FA03FC4CEA040491F803C062
:101E0000BCF1280F06D14FF0010C0CFA00FCC2F80F
:101E100014C00AE091F803C0BCF1480F05D14FF09F
:101E2000010C0CFA00FCC2F810C0401C0828D1D3E9
:101E30001460B1F800C0BCF1FF0F34DD546800201D
:101E40002EE000F1080C4FF0010808FA0CF3B1F88D
:101E500000C00CEA03069E4221D183004FF00F0C14
:101E60000CFA03F7BC4305FA03FC4CEA040491F8AE
:101E700003C0BCF1280F05D100F1080C08FA0CF8DA
:101E8000C2F8148091F803C0BCF1480F07D100F1EB
:101E9000080C4FF0010808FA0CF8C2F81080401C3A
:101EA0000828CED35460BDE8F08102460020936834
:101EB0000B400BB1012000E00020704702460020DB
:101EC000D3680B400BB1012000E0002070470AB13D
:101ED000016100E0416170470148007870470000EF
:101EE0002B00002001480078704700002A000020E5
:101EF0000048704704010020004870473C00002063
:101F000000487047CC01002003490A6802604A6813
:101F10004260098901817047C802002000BFFEE7C6
:101F20002DE9FF4F8BB09246DDE9189BDDE91A7869
:101F30000AF10105002483E004FB05F009EBC0026F
:101F4000C2E9007804FB05F009EBC00103C9CDE943
:101F5000080104FB05F00B9901EBC00003C8CDE9B3
:101F60000601DDE90823FEF7A1FB074688460126A6
:101F700036E004FB05600BEBC00003C8CDE90201AD
:101F800004FB05610C9800EBC10003C8CDE900011A
:101F9000DDE90223FEF78AFBCDE9060104FB0560BB
:101FA00009EBC00103C9CDE9020104FB05610B98EF
:101FB00000EBC10003C8CDE90001DDE90223FEF713
:101FC00075FBCDE90401DDE90623FEF769FB3A461E
:101FD0004346CDE90801FEF7C2FA07468846761C5B
:101FE0005645C6DD564616E004FB0560401E09EB6B
:101FF000C00103C904FB056209EBC20203C204FB72
:102000000560401E0BEBC00103C904FB05620BEB2E
:10201000C20203C2761E022EE6DA04FB05F009EBCB
:10202000C00006C804FB05F0401C09EBC00006C058
:1020300004FB05F0401C0BEBC000C0E90078641CF9
:102040000E988442FFF678AF384641460FB0BDE89F
:10205000F08F000010B540F2CF21C720FFF794F8B1
:10206000FEF7C6FEFEF74AFF64220249024800F06E
:10207000DFF810BD3C3300203033002010B5FFF7EF
:102080003BFF0849086064204860FEF707FF40F204
:10209000CF2140F21F30FFF7A9F8024803C8FEF72E
:1020A0005DFF10BD3400002010B5034B034A022130
:1020B0000348FEF7ADF910BD24220020AC3D000816
:1020C0001822002010B500F039FD00F061F800F092
:1020D00025F84FF4E13000F0BEF800F09DF800F074
:1020E00019F800F065F8FFF7C9FFFFF7B3FF00F03C
:1020F0003CF800F003F8FFF789FC10BD10B5FEF7BF
:1021000097FF0020024908704870887010BD0000D9
:102110002000002010B5FEF7B7FF10BD10B5FEF788
:10212000CDFF10BD00210C4A11705170917000203C
:1021300005E000220849C91C0A54411C08B20728BE
:10214000F7DB0021044A5172044A1170044A1170ED
:10215000044A117070470000C802002002000020ED
:1021600003000020040000207047704730B50B4684
:102170000024048044808280C4808360002104E0C5
:10218000002485686C544C1C21B29142F8DB30BDB0
:1021900010B5FEF799FF10BD704710B5FFF7C2FFED
:1021A000FFF7E2FFFFF7F8FFFFF77EFF10BD00002B
:1021B00030B5164800684FF47A72B0FBF2F1B1F115
:1021C000807F01D301201DE021F07F40401E4FF0B1
:1021D000E022506150170F22002807DA13071D0E66
:1021E0000B4B00F00F04241F1D5503E013071C0EBA
:1021F000084B1C5400BF00204FF0E02290610720E4
:102200001061002008B100BFFEE730BDB002002021
:1022100018ED00E000E400E010B5472140F2E7309F
:10222000FEF784FF472140F2E730FFF701F810BDC9
:1022300030B50B460024048044808280C4808360D3
:10224000002105E00024856825F811404C1C21B2CE
:102250009142F7DB30BD10B5044600F005F820468A
:10226000FFF716F810BD000010B5002406E00020AE
:102270000949085509490855601C04B2642CF6DB6D
:10228000642205490648FFF771FF642203490548A7
:10229000FFF76CFF10BD000068320020CC32002038
:1022A000503200205C32002070B504460B48008894
:1022B000401C0A49088008460088A0420DDB002027
:1022C000088020210648FFF7F9FDC0F10100C5B2E2
:1022D0002A4620210248FFF7FAFD70BD00000020C9
:1022E0000010014000BFFEE77047000000F01F0231
:1022F00001219140024A430942F82310704700002F
:1023000080E200E070B5002100230F22C47804B3FE
:10231000154C246804F4E064C4F5E064210AC1F1BA
:102320000403CA40447804FA03F18478144021433A
:1023300009010E4C0678A155047804F01F0501240C
:10234000AC4005786D11AD0005F1E025C5F8004100
:1023500009E0047804F01F050124AC40044D067820
:10236000761145F8264070BD0CED00E000E400E079
:1023700080E100E002490143024A11607047000019
:102380000000FA050CED00E01CB50446207818B9F1
:10239000FFF7B2FD00900CE02078012803D1FFF791
:1023A000AFFD009005E02078022802D1FFF7A0FDE4
:1023B000009064200190DDE9000100F03FFB002067
:1023C0001CBD70B5044600252078802803DA01255D
:1023D000204600F002F8284670BD10B503780022B0
:1023E00008210DE05406220E445C42EAD412445CFB
:1023F00044F080044454445C1C44E3B24C1EE1B2FB
:102400000129EFDC42F08004447044781C44E3B2BC
:1024100043F08004447210BD704710B5FFF75CFDB7
:1024200008B1FEF7D9FC10BD08B5FFF75BFD88B118
:102430000121684600F034FA18B19DF8000000F060
:102440000AF8FFF7BFFBFA20FFF72EFF00F092FA21
:10245000FEF7C8FC08BD30B587B0044617E001A8F8
:10246000FFF752FD01A807C804AB07C39DF8100091
:1024700071280AD10DF11300FFF786FF05462A46A1
:102480008021712000F0A0FA00E000BF00BF2046CC
:1024900000F0AEFE0028E2D107B030BD10B5FFF766
:1024A00043FBC0F10100C4B22046FFF72BFBFFF74E
:1024B0003BFB0446214602A000F030FF10BD0000A7
:1024C0004368616E6765204543475F53746172746A
:1024D000496E666F3A25630A0000000010B50B488C
:1024E0000078302808D13120084908700846017862
:1024F00007A000F013FF07E03020044908700846E9
:10250000017803A000F00AFF10BD000010000020B9
:102510005B5B342C25635D5D0D0A000010B5FFF791
:102520004BFA10BD7047704770470146C88808B91C
:10253000012070470020FCE701460020034A506854
:1025400020F44040084350607047000000100240F3
:1025500029B1064A52690243044B5A6104E0034A16
:1025600052698243014B5A617047000000100240DB
:1025700029B1064AD2690243044BDA6104E0034AF6
:10258000D2698243014BDA617047000000100240BB
:1025900029B1064A12690243044B1A6104E0034A56
:1025A00012698243014B1A6170470000001002401B
:1025B00029B1064A92690243044B9A6104E0034A36
:1025C00092698243014B9A617047000000100240FB
:1025D00029B1064AD2680243044BDA6004E0034A98
:1025E000D2688243014BDA6070470000001002405D
:1025F0000F48006840F001000D4908600846406837
:102600000C4908400A494860084600680A490840E1
:10261000074908600846006820F4802008600846E2
:10262000406820F4FE0048604FF41F008860704747
:10263000001002400000FFF8FFFFF6FE30B5002159
:102640000022002400232D4D6D6805F00C0121B1FE
:10265000042905D0082923D105E0294D056022E091
:10266000274D05601FE0254D6D6805F47012234D60
:102670006D6805F48034022505EB92421CB9214DAA
:10268000554305600BE01D4D6D6805F400351DB127
:102690001C4D5543056002E0194D5543056002E0AD
:1026A000174D056000BF00BF144D6D6805F0F001C7
:1026B0000909154D6B5C0568DD4045600F4D6D687F
:1026C00005F4E061090A104D6B5C4568DD408560EA
:1026D0000A4D6D6805F46051C90A0B4D6B5C456885
:1026E000DD40C560054D6D6805F44041890B074D1F
:1026F0006B5CC568B5FBF3F5056130BD00100240A9
:1027000000127A0000093D0096020020A602002077
:1027100010B501460022002300204A11012A02D1EF
:10272000094C236806E0022A02D1074C236A01E023
:10273000054C636A01F01F02012494401C400CB157
:10274000012000E0002010BD001002400248406857
:1027500000F00C007047000000100240014600200D
:10276000034A506820F0F0000843506070470000B2
:10277000001002401149096821F480310F4A1160AC
:102780001146096821F480211160B0F5803F03D023
:10279000B0F5802F0ED106E00849096841F4803178
:1027A000064A116007E00549096841F4A021034A7F
:1027B000116000E000BF00BF704700000010024041
:1027C00001460020034A506820F4E060084350604E
:1027D000704700000010024001460020034A506884
:1027E00020F4605040EAC100506070470010024081
:1027F000014908667047000000004242024600207E
:10280000044B586820F47C1042EA01031843014B42
:10281000586070470010024001460020034A50688B
:1028200020F0030008435060704700000010024091
:1028300038B5002000900024002500BF3120FFF7AC
:1028400067FF05460098401C00900098B0F5A06F07
:1028500001D0002DF2D03120FFF75AFF08B101243A
:1028600000E00024204638BD70B504460025012252
:1028700021460348FEF701FFC5B2284670BD00009F
:102880003033002070B5044600250122214603485C
:10289000FEF7D1FEC5B2284670BD000050320020C0
:1028A00070B504460D4600262A4621460248FEF72A
:1028B000C2FEC6B2304670BD5C32002070470000D8
:1028C00070B504460D4616462548005D4006000ECC
:1028D0002349085524B1012C0CD0022C1ED113E041
:1028E00002212048FFF7E1FA1D49095D08431C4910
:1028F000085514E004211B48FFF7D7FA1849095D71
:102900000843174908550AE001211748FFF7CDFA97
:102910001349095D08431249085500E000BF00BF94
:102920000F48005D1149095D884208D11048005DDB
:10293000012804D1B04700200D4908550EE0084891
:10294000005D0A49095DC943C9B2884206D10848F9
:10295000005D18B9A84701200549085570BD000061
:10296000230000200010014000080140200000204A
:102970002600002010B50D480078401C0B49087057
:102980000846007805280FDB00200870084A09492E
:10299000FFF796FF084A09490120FFF791FF084A0F
:1029A00008490220FFF78CFF10BD0000290000201D
:1029B0009D24000825250008DD240008272500089F
:1029C0001D25000829250008FEB504460E461546BB
:1029D00001208DF8000004208DF802008DF80340DE
:1029E0008DF804608DF8055000218DF806108DF8E3
:1029F00007108DF80810684600F012F8FEBD0000C0
:102A000010B50446E1B2054800F0E1FB00BF4021EB
:102A1000024800F00FFB0028F9D010BD003801403B
:102A200070B5044600252046FFF7CBFC0546002D77
:102A300003DD0A21204600F059FC70BD03B50248B1
:102A4000DDE9001206C00CBD3400002010B500F016
:102A500001F810BD0CB500200190009033480068CB
:102A600040F480303149086000BF3048006800F40D
:102A7000003000900198401C0190009818B901980E
:102A8000B0F5A06FF1D12948006800F4003010B112
:102A90000120009001E0002000900098012843D11F
:102AA0002348006840F0100021490860084600688B
:102AB00020F0030008600846006840F0020008604B
:102AC0001A48406819494860084640684860084606
:102AD000406840F4806048600846406820F47C10FC
:102AE00048600846406840F4E810486008460068BE
:102AF00040F08070086000BF0C48006800F0007073
:102B00000028F9D00948406820F0030007494860D0
:102B10000846406840F00200486000BF0348406833
:102B200000F00C000828F9D10CBD00000010024094
:102B30000020024010B500F001FA10BD10B5134896
:102B4000006840F0010011490860084640681049DB
:102B500008400E494860084600680E4908400B4985
:102B600008600846006820F4802008600846406835
:102B700020F4FE0048604FF41F008860FFF766FFF6
:102B80004FF000600449086010BD000000100240D2
:102B90000000FFF8FFFFF6FE08ED00E010B5012190
:102BA000880700F055F9012803D10121800700F0C2
:102BB0004BF807480088401C0549088008460088F3
:102BC000022804DB0020088001200249087010BDA3
:102BD0002C0000202A00002010B50121064800F03A
:102BE00037F918B10121044800F02EF80348008895
:102BF00000F064FB10BD00000004004094020020BF
:102C000010B501210D4800F023F9012803D101215D
:102C10000A4800F019F80A480088401C00B2084928
:102C200008800846B0F90000B0F57A7F04DB002088
:102C3000088001200349087010BD0000000C00400E
:102C40002E0000202B000020CA430282704721B1D1
:102C5000028842F00102028004E002884FF6FE730F
:102C60001A4002807047000010B50446684884424C
:102C700008D10121C014FFF7ABFC0021E014FFF7DD
:102C8000A7FCC4E0B4F1804F08D101210846FFF74A
:102C90007FFC00210120FFF77BFCB8E05D48844207
:102CA00008D101210220FFF773FC00210220FFF769
:102CB0006FFCACE05848844208D101210420FFF7A2
:102CC00067FC00210420FFF763FCA0E05348844226
:102CD00008D101210820FFF75BFC00210820FFF745
:102CE00057FC94E04E48844208D101211020FFF7A0
:102CF0004FFC00211020FFF74BFC88E0494884423C
:102D000008D101212020FFF743FC00212020FFF7FC
:102D10003FFC7CE04448844208D101214014FFF785
:102D200057FC00216014FFF753FC70E03F488442D9
:102D300009D10121C804FFF74BFC00214FF400200A
:102D4000FFF746FC63E03A48844209D101210805B7
:102D5000FFF73EFC00214FF48010FFF739FC56E0EE
:102D60003448844209D101214805FFF731FC002194
:102D70004FF40010FFF72CFC49E02F48844208D1A3
:102D800001214020FFF704FC00214020FFF700FC58
:102D90003DE02A48844208D101218020FFF7F8FB5A
:102DA00000218020FFF7F4FB31E02548844208D160
:102DB00001218015FFF7ECFB0021A015FFF7E8FBD0
:102DC00025E02048844209D101210804FFF700FCD6
:102DD00000214FF48030FFF7FBFB18E01A488442D3
:102DE00009D101214804FFF7F3FB00214FF4003023
:102DF000FFF7EEFB0BE01548844208D1012188045F
:102E0000FFF7E6FB00214FF48020FFF7E1FB10BD48
:102E1000002C01400004004000080040000C00406D
:102E2000001000400014004000340140004C0140FC
:102E3000005001400054014000180040001C0040B8
:102E40000020004000400140004401400048014093
:102E500030B50246002000230024158A05EA01034C
:102E6000958905EA010413B10CB1012000E00020AE
:102E700030BD1AB183890B43838102E083898B4380
:102E80008381704782884FF68F731A4082808288D0
:102E90000A43828070470000002202881D4B98423E
:102EA0000ED01D4B98420BD0B0F1804F08D01B4B79
:102EB000984205D01A4B984202D01A4B984204D13E
:102EC0004FF68F731A404B881A43174B984207D01E
:102ED000164B984204D04FF6FF431A40CB881A4352
:102EE00002808B8883850B8803850A4B98420BD020
:102EF000094B984208D00E4B984205D00D4B984292
:102F000002D00D4B984201D10B7A038601238382B4
:102F100070470000002C01400034014000040040D4
:102F200000080040000C0040001000400014004069
:102F3000004001400044014000480140044800684E
:102F400020B103480068401E014908607047000036
:102F5000AC02002008B50020009040F22551204826
:102F600000F075F858B12520FFF7C0F91C4800F0B3
:102F700029F9C0B200909DF8000000F0ABF90821DB
:102F8000174800F057F8012806D10821144800F02E
:102F90002DF8134800F016F940F22771104800F0A0
:102FA00056F8E0B140F227710D4800F028F82520CE
:102FB000FFF79CF96846FFF765FC9DF8001008488C
:102FC00000F005F90748FFF7B0FA40B100200649C4
:102FD0000870002240F22771014800F062F808BD35
:102FE00000380140503200203000002001F400720F
:102FF000B2F5007F00D100BFCA430280704710B510
:103000000022002340F66A14A14200D100BF0A1238
:1030100001249440A3B2DC43048010BD21B1828915
:1030200042F40052828104E082894DF6FF731A4017
:103030008281704702460020B1F5007F00D100BFB9
:1030400013880B400BB1012000E00020704770B5E1
:103050000246002400230025002040F66A16B142F3
:1030600000D100BFC1F3421501F01F03012606FA8B
:1030700003F3012D02D19689334006E0022D02D1DF
:10308000168A334001E0968A33400C12012606FA74
:1030900004F41688344013B10CB1012000E0002084
:1030A00070BDF0B50346002400260025002040F640
:1030B0006A17B94200D100BF1846C1F3421401F0AB
:1030C0001F06012707FA06F5012C01D10C3004E098
:1030D000022C01D1103000E014301AB107682F43E0
:1030E000076002E00768AF430760F0BD2DE9F047D5
:1030F00086B005460E460024A24600BFA146002722
:10310000B08900B100BF2F462C8A4CF6FF700440F6
:10311000F08804432C82AC894EF6F3100440B0884A
:1031200031890843718908430443AC81AC8A4FF666
:10313000FF400440B0890443AC8201A8FFF77EFA47
:103140001F48874202D1DDF810A001E0DDF80CA095
:10315000A88900F4004040B10AEBCA0000EB0A1055
:1031600031684900B0FBF1F807E00AEBCA0000EB58
:103170000A1031688900B0FBF1F86420B8FBF0F068
:1031800004012009642101FB1089A88900F4004092
:1031900040B1322000EBC900B0FBF1F000F00700B5
:1031A000044308E0322000EB09106421B0FBF1F089
:1031B00000F00F0004432C8106B0BDE8F08700004A
:1031C0000038014001468888C0F308007047C1F309
:1031D0000802828070474FF41651016000218180FF
:1031E000C18001810C214181002181817047000053
:1031F00070B5044600261B4D1B48007810B3802C88
:103200001CDB1A4800782C5418480078401C1749D9
:10321000087017480078401E154908700846007865
:1032200000281CDC114800780A2818D1284600F034
:1032300021F8064600200C49087010E000200A49D9
:1032400008700CE0802C0ADA092009490870012076
:10325000064908700348047001200349087030468D
:1032600070BD0000C8020020030000200200002002
:103270000400002030B501460C784B78E018C4B249
:1032800002220BE0885C2044C4B203F00105885C94
:1032900065F3DF1088545B10501CC2B2092AF1DBC1
:1032A00004F07F004D7A05F07F05A84201D0002090
:1032B00030BD0120FCE700BFFEE7000031B500246F
:1032C000012269460248FEF715FDC4B2204638BD0A
:1032D0003033002031B50024012269460248FEF750
:1032E000E5FCC4B2204638BD5C32002070B504460F
:1032F0000D4600262A4621460648FEF7D7FCC6B2F0
:10330000642E04DA0448007808B9FEF719FD304647
:1033100070BD000050320020300000200FB4054B7B
:1033200010B503A9044A029800F0DAF810BC5DF861
:1033300014FB0000E73B0008C402002002E008C8BC
:10334000121F08C1002AFAD170477047002001E01F
:1033500001C1121F002AFBD1704700002DE9FF5F59
:1033600082B00021DDE90430020DDDF840B00343F6
:1033700018D044F61050A2F2FF32424315141198AF
:1033800001281FD0A5EB0B00401C5FEA000A4FF09C
:1033900000064E4FDFF83891B046504615D5CAF1B9
:1033A000000413E0119801244AA3012801D16FEA17
:1033B0000B010298119AC0E90031C0E9024206B03F
:1033C000BDE8F09FCBF10000DFE704460021404A52
:1033D000491842EB0450CDE9001012E0E00707D095
:1033E00032463B4640464946FDF760F980468946ED
:1033F00032463B4610461946FDF758F906460F4639
:103400006410002CEAD1DDE90401DDE90023BAF102
:10341000000F06DAFDF74AF942464B46FDF746F93A
:1034200005E0FDF7B5F942464B46FDF7B1F9044614
:103430000E460022284BFDF76BFA03D84FF0FF3001
:10344000014607E00022254B20463146FDF787F86C
:10345000FDF7A8FB102409E0002C0ADB0A22002358
:10346000FDF7AAFA039B30321A55641E50EA010296
:10347000F2D1641C039AC4F111031444119A012A75
:1034800003D0012208430DD10AE0084304D00020F4
:103490004FF0110B119072E7A3EB0B056D1E0DE0C1
:1034A0005B4504DD4FF0000205F1010504E003DA9D
:1034B0004FF00002A5F10105002AECD00298119905
:1034C000C0E90231C0E9004579E70000000014407E
:1034D0000000F03F300000000000F0430000E03F3B
:1034E0002DE9FF4F95B09A46884606460025EEE145
:1034F000252877D100242746F94A0121039400E0CA
:10350000044316F8013F203B01FA03F01042F7D1C3
:1035100030782A2811D06FF02F033078A0F13002D4
:10352000092A16D8039A44F0020402EB820203EB44
:1035300042021044761C0390EFE758F8042B0392E4
:10354000002A03DA504244F40054039044F0020489
:10355000761C30782E2816D116F8010F44F004049A
:103560002A280DD06FF02F023078A0F13003092BFC
:1035700009D807EB870302EB4303C718761CF3E770
:1035800058F8047B761C30786C280FD006DC4C2869
:1035900017D068280DD06A2814D104E0742810D000
:1035A0007A280FD10DE044F400140AE044F48014AA
:1035B00001E044F440147278824202D104F5801490
:1035C000761C761C307866280BD013DC582877D010
:1035D00009DC002875D04528F6D04628F4D04728C5
:1035E0001AD193E118E0632835D0642879D0652892
:1035F00012D18BE1702873D008DC6728F1D06928DC
:103600006FD06E280DD06F2806D1ACE073282CD077
:10361000752874D0782853D05246179990476D1C5E
:1036200054E1C4F30250022809D003280DD0D8F881
:10363000001004280DD00D6008F1040846E1D8F808
:103640000010EA17C1E90052F6E7D8F800100D8023
:10365000F2E70D70F0E718F8041B8DF80010002059
:103660008DF80100EB46012003E058F804BB4FF051
:10367000FF3061074FF0000102D40DE009F10101B4
:103680008946B9420FDA8145F8DB1BF80910002999
:10369000F4D108E009F1010189468142FADB1BF807
:1036A00009100029F6D103985346A0EB09072146DB
:1036B0003846179A00F080FA284400EB090507E025
:1036C00044E008E10DE01BF8010B524617999047C2
:1036D000B9F10109F7D2534621463846179AF2E06C
:1036E00039E00A21C4F302524FF0000B0091022A84
:1036F00006D058F8040BC117032A09D00AE023E0CA
:1037000008F1070020F00702F2E80201904605E008
:1037100000B2C117042A01D140B2C117002906DA4C
:103720000A460021404261EB02012D2202E02205FF
:1037300004D52B228DF80420012203E0E20701D0FA
:103740002022F7E7914657E00A2100E010214FF0D0
:10375000000B00910BE010214FF0000B44F004042B
:103760000827009103E008204FF0000B0090C4F3FD
:103770000252022A05D058F8040B0021032A08D06F
:1037800008E008F1070020F00702F2E80201904685
:1037900003E080B2042A00D1C0B24FF00009220732
:1037A0002AD53278702A07D0DDF800C08CF0100CD2
:1037B0005CEA0B0C05D00EE040228DF804200122BB
:1037C00008E050EA010306D030238DF804308DF86C
:1037D000052002229146009B83F0080353EA0B0365
:1037E0000AD150EA010201D1620705D530228DF8D5
:1037F00004204FF001097F1E3278582A04D039A2E4
:103800000C920CAA02920BE03BA2F9E75B46009AED
:10381000FDF7D2F80C9B9B5C029A521E0292137029
:1038200050EA0102F2D1029804A9081A00F1200B13
:10383000600702D524F4803400E001275F4502DDF3
:10384000A7EB0B0000E0002000EB0B0100900398B9
:103850004944401A0390E00306D453462146179A80
:10386000039800F0A9F90544002706E001A8524694
:10387000C05D179990476D1C7F1C4F45F6DBE00338
:103880000CD553462146179A039800F095F9054444
:1038900004E030205246179990476D1C0099481E4D
:1038A00000900029F5DC08E0029802995246007861
:1038B000491C0291179990476D1CBBF10001ABF1B7
:1038C000010BF1DC5BE100F065F90544761C307812
:1038D00000287FF40DAE19B02846BDE8F08F000037
:1038E00009280100303132333435363738396162D6
:1038F000636465660000000030313233343536379A
:10390000383941424344454600000000600700D476
:10391000062708F1070020F00700F0E802238046A0
:1039200003F0004C5FEA0C0001D097A009E02005ED
:1039300001D596A005E0E00701D095A001E0AFF227
:103940004C001390307823F0004365280CD006DC3F
:10395000452809D046281DD047287FD13BE066285E
:1039600018D067287AD136E00021112F01DB112011
:1039700000E0781CCDE9000104A90CA8FFF7EEFCDB
:10398000DDE90D010C9A4FF0000B07F101091092CF
:1039900000914EE04FF000400097CDE9011004A9DE
:1039A0000CA8FFF7DBFCDDE90D020C9B0F994FF033
:1039B000000B91461093009211B9791C00EB01099C
:1039C000B7EB090003D4C0F1FF3B07F10109A9EBF4
:1039D0000700019042E0012F00DA01270021112F9A
:1039E00001DD112000E03846CDE9000104A90CA852
:1039F000FFF7B4FCDDE90D010C9A00914FF0000BCC
:103A0000B946109221070FD4009A4A4503DA91462D
:103A100001E0A9F10109B9F1010F05DD109AA9F141
:103A20000101515C3029F4D0B84202DA10F1040FE0
:103A300003DA0121CDE9011010E0002803DC834402
:103A4000A9EB000102E0411C494500DD8946A0EBDD
:103A50000B00401C01904FF000400290200705D45D
:103A60000198484502DB4FF0FF30019000208DF8AF
:103A70004B0002980DF14B07B0F1004F25D002200A
:103A80000C902B200D90029800280CDA40420290F6
:103A90002D200D9007E00A210298FCF777FF3031C6
:103AA000029007F8011D0C99481E0C900029F2DCC9
:103AB00002980028EFD1791E0D980870307800F038
:103AC000200040F0450007F8020D11A8C01BC01DE2
:103AD00002901398007800B1012000EB09010198D1
:103AE00001EBE071029801440398401A401E0390D4
:103AF000E00306D453462146179A039800F05CF879
:103B000005441398007818B15246179990476D1CD8
:103B1000E00323D553462146179A039800F04CF84A
:103B200005441BE0BBF1000F07DB0098584504DD9E
:103B30001098179910F80B0001E0179930205246A1
:103B4000904701980BF1010B401E05F10105019012
:103B500004D12E205246179990476D1CB9F10001EF
:103B6000A9F10109DEDC05E017F8010B52461799AF
:103B700090476D1C0299481E02900029F4DC5346C0
:103B80002146179A03989EE62D0000002B000000A6
:103B9000200000002DE9F041044600251E4617468E
:103BA000880404D405E039462020B0476D1C641E0B
:103BB000F9D52846BDE8F0812DE9F04104460025FD
:103BC0001E469046C80301D5302700E02027880410
:103BD00004D505E041463846B0476D1C641EF9D552
:103BE0002846BDE8F08170B504460D46E0B2FEF708
:103BF00007FF204670BD0000FEF7CFFAFEF762FA1D
:103C000004A0FFF78BFB03E0FEF70EFCFEF705FCBC
:103C1000FAE70000496E69742053797374656D206A
:103C2000686173206265656E2066696E6973686598
:103C3000642E0D0A000000000300000000000000D8
:103C40001D508E782D2BED3FAE1B23D71299F7BF59
:103C50001D508E782D2BED3F03000000000000006A
:103C6000000000000000F03FAE1B23D71299F7BF01
:103C7000B69C1CF15A56EA3F030000000000000009
:103C8000A9D198A13411EE3F704CF6792295E2BF8C
:103C9000A9D198A13411EE3F0300000000000000FC
:103CA000000000000000F03F704CF6792295E2BF62
:103CB00051A331436922EC3F0300000000000000E3
:103CC000A9D198A13411EE3FD897C78D2B53F83F57
:103CD000A9D198A13411EE3F0300000000000000BC
:103CE000000000000000F03FD897C78D2B53F83F2D
:103CF00051A331436922EC3F0100000003000000A2
:103D000001000000000000006A5B789A3B86BB3F20
:103D100000000000000000000000000000000000A3
:103D2000000000000000F03F000000000000004024
:103D3000000000000000F03FB108FAAF2085EC3F22
:103D40000000000000000000000000000000000073
:103D5000010000000300000001000000000000005E
:103D6000000000000000F03F000000000000000024
:103D70000000000000000000000000000000F03F14
:103D80005AFC9C087C77F0BFE45AECBC2B64DD3F06
:103D9000000000000000F03F0000000000000000F4
:103DA0000000000000000000020000000000803F52
:103DB00000000000000080BF05BCFD3FF8827BBF13
:103DC0000000803F00000000000080BFA13CC03F19
:103DD00005AB1BBFF43D000800000020C802000036
:103DE000F80B0008983F0008C8020020403500008A
:103DF0004C330008811A010211223032310525F0BE
:103E0000D7D63C14088008182F097F09FD09780AC5
:103E1000F10A670BDA0B490CB30C190D790DD40DAF
:103E2000290E780EC00E020F3C0F6F0F9B0FBF0FB5
:103E3000DB0FEF0FFB0FFF041AEF0C1ABF141A6F02
:103E40001C1C020FC0281C290ED4341810190DB3E5
:103E50000C490CDA0B670BF10A780AFD58111A09A4
:103E6000601023087F07FF068006020687050E05FF
:103E700098042504B6034C03E60286022B02D60101
:103E800087013F01FD12C3129012641240122412E6
:103E90001032041A04081A24101A641812C312FDEE
:103EA0001A3F281CD6012B341810E6024C03B60327
:103EB000250498040E05870502580564FF067F0750
:103EC0001AFFFC095E0221125212A412F6102B48AE
:103ED000019901EB013D028F02E10233038503D713
:103EE0000329047B04CD041E057005C20514066673
:103EF00006B8060A075C07AE071831085108A30880
:103F0000F50847099909EB093D0A8F0AE10A330BC5
:103F1000840BD60B280C7A0CCC0C1E0D700DC20D28
:103F2000140E660EB70E090F5B0FAD661AAD081CB6
:103F3000090FB7141C140EC2201C1E0DCC2C1C28FB
:103F40000CD6381C330BE1441C3D0AEB501C4709CE
:103F5000F55C1351081B08AE6C1C0A07B8781C14DA
:103F600006C2841C1E05CD901C2904D79C1C33035B
:103F7000E1A81C3D02EBB41C4801F6C072522D01B1
:103F8000020304047009060708090204060884A253
:083F90004A04691E4100000013
:0400000508000131BD
:00000001FF
