:020000040800F2
:100000000806002049010008D915000885130008DA
:10001000D5150008190900086F220008000000002B
:10002000000000000000000000000000A91A000805
:100030006F1100080000000079160008B51B0008C9
:100040006301000863010008630100086301000800
:1000500063010008630100086301000863010008F0
:1000600063010008630100086301000863010008E0
:1000700063010008630100086301000863010008D0
:1000800063010008630100086301000863010008C0
:1000900063010008630100086301000863010008B0
:1000A00063010008630100086301000863010008A0
:1000B0001D1C0008591C00086301000863010008AA
:1000C0006301000863010008630100086301000880
:1000D00063010008D51F00086301000863010008E0
:1000E0006301000863010008630100086301000860
:1000F0006301000863010008630100086301000850
:100100006301000863010008811C00086301000806
:10011000630100086301000863010008630100082F
:100120006301000863010008B10E000863010008C4
:10013000DFF810D000F0EAFA00480047812B0008F1
:10014000AFF30080080600200648804706480047B5
:10015000FEE7FEE7FEE7FEE7FEE7FEE7FEE7FEE777
:10016000FEE7FEE7BD1B0008310100082DE9FE4F48
:1001700081EA030404F0004421F0004100944FF0B0
:10018000000B23F0004350EA01045ED052EA03045E
:100190005BD0C3F30A54C1F30A552C44A4F2F334E0
:1001A0000194A0FB0254C1F3130141F48011C3F385
:1001B000130343F4801301FB024400FB034E840A43
:1001C000970A44EA815447EA8357A4FB07680295DB
:1001D0008D0A05FB07854FEA932C04FB0C54270579
:1001E000029D4FEA065847EA1637B5EB08056EEB55
:1001F000070C870E920E47EA811742EA8312A7FB8B
:100200000201B6EB0B0164EB00042B0D43EA0C3347
:100210005E1844EB1C50DA465146E7FB0201C5F379
:1002200013044FEA0B3343EA14534FEA0432019CA0
:1002300043EA0603A4F10C040294009CCDE900B447
:1002400000F03EF903B0BDE8F08F00200146F9E769
:100250002DE9F04D81EA030404F0004B21F0004544
:1002600014464FF0000A23F0004150EA050220D066
:1002700054EA01021DD0C5F30A570246C5F3130321
:10028000C1F31300C1F30A5640F4801543F4801300
:10029000A7EB0608101BD64608F2FD3873EB0500E5
:1002A00002D308F1010801E092185B41B8F1000F98
:1002B00003DA00200146BDE8F08D00204FF48011E4
:1002C000064684460EE0171B73EB050705D3121B89
:1002D00063EB050306434CEA010C49084FEA300082
:1002E00092185B4150EA0107EDD152EA030012D0A7
:1002F00082EA040083EA0501084305D0101BAB41E4
:1003000006D20122002306E000224FF0004302E063
:100310006FF0010253101AEB06004CEB085110EB82
:100320000A0041EB0B01BDE8F04D00F0BAB80EB584
:1003300040F2334102910021CDE900110A460B46FB
:1003400000F0BEF803B000BD00F0004230F0004005
:100350000AD0C10D01F56071C0F3160042EA0151E7
:10036000C20840071143704700200146704701F062
:10037000004330B421F0004150EA010206D00A0DDA
:10038000A2F56072C1F31301002A02DC30BC002028
:100390007047440F44EAC104C100E01830BC00EBD0
:1003A000C25000F047B830B50B460146002020226D
:1003B000012409E021FA02F59D4205D303FA02F572
:1003C000491B04FA02F52844151EA2F10102F1DCD2
:1003D00030BD2DE9F05F0546002092469B468846D9
:1003E0000646814640241BE02846414647462246B1
:1003F00000F0ADF953465A46C01A914110D3114648
:100400001846224600F094F92D1A67EB01084F4672
:1004100022460120002100F08BF917EB00094E4124
:10042000201EA4F10104DFDC484631462A4643463B
:10043000BDE8F09F0029A8BF7047401C490008BFD5
:1004400020F00100704710B4B0FA80FC00FA0CF004
:1004500050EA010404BF10BC704749B1CCF120043C
:1004600021FA04F411FA0CF118BF012121430843C9
:10047000A3EB0C01CB1D4FEA00614FEA102042BFF5
:10048000002010BC704700EBC35010440029A4BFEB
:1004900010BC7047401C490008BF20F0010010BC90
:1004A000704710B5141E73F1000408DA401C41F1C6
:1004B000000192185B411A4301D120F0010010BDE8
:1004C0002DE9F04D92469B4611B1B1FA81F202E05E
:1004D000B0FA80F22032904600F02AF904460F4626
:1004E00040EA0A0041EA0B0153465A46084313D03A
:1004F000114653EA010019D0C8F14002504600F0FD
:1005000026F905460E4650465946424600F010F977
:10051000084305D0012004E020463946BDE8F08DAF
:100520000020054346EAE0762C4337430A986305EA
:10053000E40AA0EB08000022FD0A44EA47540A300E
:1005400002D500200146E9E7010510196941DDE9FE
:10055000084500196941BDE8F04DA2E72DE9FE4FBD
:10056000804681EA0300C00F0C46009021F0004154
:1005700023F00045B8EB0200A94105D240462146D0
:1005800090461C460B46024623F00040104347D0DD
:10059000270DC7F30A00C3F30A510290401A0190D5
:1005A00040286BDAC3F3130040F4801B0098924696
:1005B00020B10023D2EB030A63EB0B0B01985946E1
:1005C000C0F14002504600F0B3F806460D465046D2
:1005D0005946019A00F0CBF810EB08006141002465
:1005E00087EA115284EAE7731A4340D0009A62B353
:1005F000019A012A4FEA075215DC001B61EB020148
:100600004FF0004202EA0752CDE90042001C41F5DA
:10061000801132462B46FFF753FF03B0BDE8F08F41
:1006200040462146F9E7001B61EB0201001C41F541
:10063000801300185B412018A2F5001747EB030157
:1006400040EAD570B6196D4111E06D084FEA3606E3
:1006500045EAC0754FEA0752001B61EB0201001C1E
:1006600041F5801149084FEA3000001951413246E6
:100670002B4603B0BDE8F04FFFF713BF00980122EF
:1006800040000023D0EB020263EBE07300982146A8
:100690004FEAE074B8EB000061EB0401E9E783F096
:1006A00000435BE781F0004158E7C1F30A52C1F310
:1006B000130140F2FF3341F480119A4202DA002024
:1006C0000146704740F233439A42A2F2334202DCC1
:1006D000524200F03CB800F02BB8000030B5041EC8
:1006E00071F1000404DB4FF00044404264EB01016F
:1006F000141E73F1000405DB1C464FF00043524208
:1007000063EB0403994208BF904230BD064C074D8D
:1007100006E0E06840F0010394E8070098471034D1
:10072000AC42F6D3FFF708FDC02B0008E02B000811
:10073000202A04DB203A00FA02F1002070479140A1
:10074000C2F1200320FA03F3194390407047202A96
:1007500004DB203A21FA02F00021704721FA02F36B
:10076000D040C2F120029140084319467047202A28
:1007700006DBCB17203A41FA02F043EAE07306E0C9
:1007800041FA02F3D040C2F12002914008431946D9
:10079000704721B1826842F00102826003E0826802
:1007A00022F001028260704721B1826842F48072B7
:1007B000826003E0826822F480728260704721B117
:1007C000826842F48012826003E0826822F4801220
:1007D00082607047014600208A6802F004020AB174
:1007E000012000E000207047014600208A6802F0E6
:1007F00008020AB1012000E00020704730B502462F
:100800000020002350680F4C20400D790C6844EA0A
:1008100005242043506090680B4C2040D1E90254DD
:100820002C434D7944EA450420439060D06A20F47B
:1008300070000C7C641EE4B2234340EA0350D06293
:1008400030BD0000FFFEF0FFFDF7F1FFF0B50446FC
:100850000D4600200021092D11DDE068A5F10A06F2
:1008600006EB4607072606FA07F18843A5F10A06B4
:1008700006EB460603FA06F10843E0600CE0206947
:1008800005EB4507072606FA07F1884305EB450601
:1008900003FA06F108432061072A0FDA606B561E3F
:1008A00006EB86071F2606FA07F18843561E06EB5D
:1008B000860605FA06F10843606322E00D2A0FDA86
:1008C000206BD61F06EB86071F2606FA07F1884322
:1008D000D61F06EB860605FA06F10843206310E0F2
:1008E000E06AA2F10D0606EB86071F2606FA07F15D
:1008F0008843A2F10D0606EB860605FA06F10843C9
:10090000E062F0BD816841F0080181607047816854
:1009100041F004018160704700BFFEE700200149FB
:10092000087070470F0000200020014908707047D0
:100930000E00002000B587B04FF4004000F0F2FE3A
:100940000121480200F02AFF0121102000F026FFBB
:100950001020ADF8180000208DF81B0006A91E48D5
:1009600000F06AFC0020019001208DF808000020B2
:100970008DF809004FF4002003900020049001201E
:100980008DF8140001A91548FFF738FF072301224D
:100990000E211248FFF75AFF01211048FFF704FF0C
:1009A00001210E48FFF70BFF01210C48FFF7F1FE74
:1009B0000A48FFF7A7FF00BF0848FFF715FF002808
:1009C000FAD10648FFF7A3FF00BF0448FFF702FF74
:1009D0000028FAD107B000BD000801400024014002
:1009E00000B585B00121042000F0D8FE01214807A0
:1009F00000F0B4FE1020ADF8100003208DF81200B6
:100A000000208DF8130004A90C4800F015FC2C20E0
:100A100000900020019002900390694600F01EFAB9
:100A20000121002000F004FA0021084600F030FA0D
:100A30000121002000F0E8F905B000BD00080140E8
:100A400000B58BB00121084600F078FE114800F097
:100A500065FA114800901148019000200290012091
:100A600003900020049080200590400006908000B4
:100A7000079020200890C001099000200A90694644
:100A8000044800F010FB0121024800F03BFA0BB0D3
:100A900000BD0000080002404C2401401600002068
:100AA00000B58DB00121022000F048FE184800F08A
:100AB00035FA1848029010200490002006908020FB
:100AC0000790400008908000099020200A900002C2
:100AD0000B9000200C9002A90D4800F0E4FA3A2097
:100AE0008DF8040000208DF805008DF80600012027
:100AF0008DF8070001A800F07DFD012202210448C5
:100B000000F0C8FA0121024800F0FCF90DB000BD68
:100B1000300402400874004008B50121102000F0A4
:100B20003DFE1020ADF8000003208DF802001020DB
:100B30008DF8030069460D4800F07EFB012210216C
:100B40000A4800F00DFC2020ADF8000003208DF8CD
:100B5000020010208DF803006946044800F06CFB89
:100B600000222021014800F0FBFB08BD00100140DD
:100B700010B54FF4A06000F075FD10BD10B500F089
:100B80002DFE4FF4803000F0EBFE00F047FF0446EE
:100B9000012C24D1102000F035FB022000F040FB96
:100BA000002000F0D1FE002000F00CFFA00200F0B9
:100BB000FDFE4FF4E011200400F016FF012000F0CC
:100BC0000DFF00BF392000F099FE0028FAD0022066
:100BD00000F018FF00BF00F0AFFE0828FBD110BDE9
:100BE0007FB505460C460121084600F0B7FDADF87B
:100BF0000850ADF804400020ADF80A00ADF806003A
:100C000001A94FF0804001F087F9012211469007B9
:100C100001F06FF91C208DF8000000208DF8010014
:100C200003208DF8020001208DF80300684600F0D3
:100C3000E1FC0121880701F04AF87FBD7FB5054638
:100C40000C460121022000F089FDADF80850ADF8F6
:100C500004400020ADF80A00ADF8060001A90F48D5
:100C600001F05AF920210D4801F04CF901221146FA
:100C70000A4801F03EF91D208DF8000001208DF892
:100C800001008DF802008DF80300684600F0B2FC08
:100C90000121024801F01BF87FBD00000004004064
:100CA0003EB505460C460121042000F057FD0C48D6
:100CB00001F01AF8ADF80450ADF800400020ADF88E
:100CC0000600ADF802006946054801F025F920212B
:100CD000034801F017F90121014800F0F8FF3EBD7B
:100CE000000800407FB505460C460121082000F0B1
:100CF00035FDADF80850ADF804400020ADF80A000D
:100D0000ADF8060001A90E4801F006F901221146CE
:100D10000B4801F0EEF832208DF8000000208DF82D
:100D2000010003208DF8020001208DF803006846C1
:100D300000F060FC0121024800F0C9FF7FBD000007
:100D4000000C004010B586B004460121880300F075
:100D500025FD0121042000F021FD4FF40070ADF8C5
:100D6000140018208DF8170003208DF8160005A92F
:100D7000224800F061FA4FF48060ADF814000420BE
:100D80008DF8170005A91D4800F056FA01A801F0DA
:100D900062FA01940020ADF80800ADF80A00ADF841
:100DA0000C000C20ADF80E000020ADF8100001A9D9
:100DB000134801F0DBF925208DF8000001208DF8A3
:100DC00001008DF802008DF80300684600F012FC67
:100DD000012240F225510A4801F0A3F9012240F214
:100DE0002771074801F09DF90121054801F056F9E6
:100DF00000200449087006B010BD00000008014042
:100E0000003801401400002039B1084A126801235B
:100E100083401A43054B1A6006E0044A1268012316
:100E200083409A43014B1A607047000000740040F1
:100E300041B1094A12684FF4805383401A43064B6C
:100E40001A6007E0044A12684FF4805383409A43C3
:100E5000014B1A60704700000074004030B500225A
:100E600000230A4C226840F6FE748440A243D1E974
:100E700000452C438D682C43CD6844EA050303FAF2
:100E800000F42243014C226030BD00000074004099
:100E900008B500220092054A009200F10802009B6A
:100EA0001A440092009A116008BD000000740040CE
:100EB00010B50A4800F0D8F870B13A2000F01F02CF
:100EC00001219140064A430942F8231000BF05481A
:100ED00000F00AF8FFF7E4FD10BD0000000200106A
:100EE00080E200E00001001000F0805111B10349E0
:100EF000086001E0024948607047000004040240B5
:100F00000000024021B1026842F00102026004E0E8
:100F100002684FF6FE731A400260704701684FF690
:100F2000FE72114001600021016041608160C1607A
:100F30004B49884208D14A490839496841F00F01B4
:100F4000474A083A51608AE045491431884208D13D
:100F500043490839496841F0F001414A083A516073
:100F60007DE03F492831884208D13D490839496828
:100F700041F470613A4A083A516070E038493C31B6
:100F8000884208D136490839496841F47041344AE9
:100F9000083A516063E032495031884208D1304903
:100FA0000839496841F470212D4A083A516056E0E9
:100FB0002B496431884208D129490839496841F4EC
:100FC0007001274A083A516049E025497831884242
:100FD00008D123490839496841F07061204A083A2C
:100FE00051603CE01F49884206D1011F096841F069
:100FF0000F01021F116032E01A491431884208D1F2
:101000001849091F096841F0F001164A121F1160C2
:1010100025E014492831884208D11249091F09687E
:1010200041F470610F4A121F116018E00D493C3104
:10103000884208D10B49091F096841F47041094AE7
:10104000121F11600BE007495031884207D1054952
:10105000091F096841F47021024A121F116070478C
:10106000080002400804024001460020002201F06E
:10107000805313B1054B1A6801E0054B1A6802EA68
:1010800001030BB1012000E0002070470004024082
:10109000000002401AB103680B43036002E00368DA
:1010A0008B430360704710B50022026847F6F07367
:1010B0009A430C6A8B6823430C6923434C6923438E
:1010C0008C692343CC6923434C6A23438C6A2343B2
:1010D0001A430260CB6843600B6883604B68C3604F
:1010E00010BD30B50346002016E0B3F900509C68EF
:1010F000645D0C541C88641C24B21C80B3F900404D
:10110000B3F90450AC4201DB00241C80441C20B223
:10111000DC88641E24B2DC80B3F90640002C01DDBB
:101120009042E2DB30BD30B50346002018E0B3F951
:1011300000509C6834F8154021F810401C88641C4D
:1011400024B21C80B3F90040B3F90450AC4201DB77
:1011500000241C80441C20B2DC88641E24B2DC8085
:10116000B3F90640002C01DD9042E0DB30BD704752
:1011700070B50346002016E00C5CB3F902609D6870
:10118000AC555C88641C24B25C80B3F90240B3F9AE
:101190000450AC4201DB00245C80441C20B2DC889B
:1011A000641C24B2DC80B3F90640B3F90450AC42AD
:1011B00001DA9042E0DB70BD70B50346002018E014
:1011C00031F81040B3F902609D6825F816405C883C
:1011D000641C24B25C80B3F90240B3F90450AC4201
:1011E00001DB00245C80441C20B2DC88641C24B237
:1011F000DC80B3F90640B3F90450AC4201DA904206
:10120000DEDB70BD0549096821F01001034A116059
:101210001146096801431160704700000020024038
:1012200001460020034A106800F0380008431060AF
:1012300070470000002002402DE9F04102460025E1
:101240000026002000230024002791F803C00CF0A2
:101250000F0591F803C00CF0100CBCF1000F03D087
:1012600091F802C04CEA050591F800C0BCF1000FEE
:1012700031D0146800202BE04FF0010C0CFA00F381
:10128000B1F800C00CEA03069E4220D183004FF063
:101290000F0C0CFA03F7BC4305FA03FC4CEA0404F8
:1012A00091F803C0BCF1280F06D14FF0010C0CFAE5
:1012B00000FCC2F814C00AE091F803C0BCF1480F6A
:1012C00005D14FF0010C0CFA00FCC2F810C0401C14
:1012D0000828D1D31460B1F800C0BCF1FF0F34DD91
:1012E000546800202EE000F1080C4FF0010808FAC5
:1012F0000CF3B1F800C00CEA03069E4221D1830032
:101300004FF00F0C0CFA03F7BC4305FA03FC4CEA50
:10131000040491F803C0BCF1280F05D100F1080CBA
:1013200008FA0CF8C2F8148091F803C0BCF1480F19
:1013300007D100F1080C4FF0010808FA0CF8C2F8C8
:101340001080401C0828CED35460BDE8F0810246CE
:101350000020D3680B400BB1012000E00020704753
:101360000AB1016100E04161704700000148007866
:10137000704700000F00002001480078704700000F
:101380000E00002000BFFEE710B540F2CF2140F272
:101390001F30FFF753FCFFF7CDFAFFF751FB642234
:1013A0000249034800F0B0F810BD000040010020E1
:1013B0003401002010B5FFF713FB40F2CF2140F2BB
:1013C0001F30FFF76DFCFFF76BFB10BD10B500F091
:1013D000F5FB00F04DF800F013F84FF4E13000F0A9
:1013E000A6F800F085F800F007F800F04DF8FFF7D8
:1013F000E1FFFFF7C9FF10BD10B5FFF78DFB10BD72
:1014000010B5FFF7B5FB10BD00210C4A11705170EB
:101410009170002005E000220849C91C0A54411CB3
:1014200008B20728F7DB0021044A5172044A117000
:10143000044A1170044A11707047000048000020EF
:101440000A0000200B0000200C00002030B50B46E5
:101450000024048044808280C4808360002104E0F2
:10146000002485686C544C1C21B29142F8DB30BDDD
:1014700010B5FFF783FB10BD704710B5FFF7C4FF31
:10148000FFF7FAFF10BD000030B5164800684FF4B2
:101490007A72B0FBF2F1B1F1807F01D301201DE03F
:1014A00021F07F40401E4FF0E022506150170F2284
:1014B000002807DA13071D0E0B4B00F00F04241F42
:1014C0001D5503E013071C0E084B1C5400BF0020E1
:1014D0004FF0E022906107201061002008B100BFAA
:1014E000FEE730BD3000002018ED00E000E400E031
:1014F00010B5472140F2E730FFF772FB472140F279
:10150000E730FFF7EFFB10BD30B50B460024048039
:1015100044808280C4808360002105E000248568C7
:1015200025F811404C1C21B29142F7DB30BD10B5BB
:10153000044600F005F82046FFF704FC10BD00004B
:1015400010B5002406E0002009490855094908554E
:10155000601C04B2642CF6DB642205490648FFF7E0
:1015600075FF642203490548FFF770FF10BD0000B6
:101570006C000020D00000205400002060000020FB
:1015800070B5044611480088401C10490880084680
:101590000088A04219DB0020088010210C48FFF7CA
:1015A000D6FEC0F10100C5B22A4610210848FFF757
:1015B000D7FE20210648FFF7CAFEC0F10100C5B2E0
:1015C0002A4620210248FFF7CBFE70BD080000200C
:1015D0000010014000BFFEE77047000000F01F024E
:1015E00001219140024A430942F82310704700004C
:1015F00080E200E070B5002100230F22C47804B31C
:10160000154C246804F4E064C4F5E064210AC1F1D7
:101610000403CA40447804FA03F184781440214357
:1016200009010E4C0678A155047804F01F05012429
:10163000AC4005786D11AD0005F1E025C5F800411D
:1016400009E0047804F01F050124AC40044D06783D
:10165000761145F8264070BD0CED00E000E400E096
:1016600080E100E002490143024A11607047000036
:101670000000FA050CED00E0704710B5FFF776FEAC
:1016800008B1FFF74BF910BD2DE9FC47FFF774FED9
:10169000002834D0012101A800F0F8F91948007899
:1016A000401C1849087008460078042822DB684668
:1016B00000F0D0F9D8B1BDF80000FEF738FE0646BC
:1016C0004FF06632104BFEF751FD044600220F4BDF
:1016D000FEF7BEFD8046FEF74AFE82465046FEF704
:1016E00033FE044622460B4609A000F0DBFD002035
:1016F00004490870FA20FFF743FFFFF715F9BDE82A
:10170000FC8700000000002066660A4000FEAF4033
:1017100025660A000146C88808B9012070470020E4
:10172000FCE7000001460020034A506820F44040D6
:1017300008435060704700000010024029B1064A7B
:1017400052690243044B5A6104E0034A52698243DE
:10175000014B5A61704700000010024029B1064A4F
:10176000D2690243044BDA6104E0034AD26982433E
:10177000014BDA61704700000010024029B1064AAF
:1017800012690243044B1A6104E0034A126982435E
:10179000014B1A61704700000010024029B1064A4F
:1017A00092690243044B9A6104E0034A92698243BE
:1017B000014B9A61704700000010024029B1064AAF
:1017C000D2680243044BDA6004E0034AD2688243E1
:1017D000014BDA6070470000001002400F480068BB
:1017E00040F001000D490860084640680C49084077
:1017F0000A494860084600680A49084007490860E5
:101800000846006820F4802008600846406820F4FC
:10181000FE0048604FF41F008860704700100240CF
:101820000000FFF8FFFFF6FE30B500210022002483
:1018300000232D4D6D6805F00C0121B1042905D060
:10184000082923D105E0294D056022E0274D0560D8
:101850001FE0254D6D6805F47012234D6D6805F489
:101860008034022505EB92421CB9214D5543056099
:101870000BE01D4D6D6805F400351DB11C4D554341
:10188000056002E0194D5543056002E0174D056003
:1018900000BF00BF144D6D6805F0F0010909154D3A
:1018A0006B5C0568DD4045600F4D6D6805F4E061D7
:1018B000090A104D6B5C4568DD4085600A4D6D6816
:1018C00005F46051C90A0B4D6B5C4568DD40C5608D
:1018D000054D6D6805F44041890B074D6B5CC5688B
:1018E000B5FBF3F5056130BD0010024000127A002F
:1018F00000093D00180000202800002010B5014616
:101900000022002300204A11012A02D1094C236839
:1019100006E0022A02D1074C236A01E0054C636A03
:1019200001F01F02012494401C400CB1012000E092
:10193000002010BD001002400248406800F00C007A
:10194000704700000010024001460020034A506822
:1019500020F0F00008435060704700000010024083
:101960001149096821F480310F4A11601146096854
:1019700021F480211160B0F5803F03D0B0F5802FB5
:101980000ED106E00849096841F48031064A116029
:1019900007E00549096841F4A021034A116000E00D
:1019A00000BF00BF70470000001002400146002049
:1019B000034A506820F4E06008435060704700001C
:1019C0000010024001460020034A506820F4605095
:1019D00040EAC100506070470010024001490866AB
:1019E000704700000000424202460020044B586845
:1019F00020F47C1042EA01031843014B5860704701
:101A00000010024001460020034A506820F0030005
:101A100008435060704700000010024038B50020B5
:101A200000900024002500BF3120FFF767FF054626
:101A30000098401C00900098B0F5A06F01D0002DD8
:101A4000F2D03120FFF75AFF08B1012400E0002452
:101A5000204638BD70B504460025012221460348C2
:101A6000FFF761FBC5B2284670BD000034010020BD
:101A700070B504460025012221460348FFF731FBDB
:101A8000C5B2284670BD00005400002070B5044661
:101A90000D4600262A4621460248FFF722FBC6B221
:101AA000304670BD600000207047000010B504464D
:101AB000E1B2054800F0CBFB00BF4021024800F036
:101AC000F9FA0028F9D010BD0038014010B500F037
:101AD00001F810BD0CB5002001900090334800685B
:101AE00040F480303149086000BF3048006800F49D
:101AF000003000900198401C0190009818B901989E
:101B0000B0F5A06FF1D12948006800F4003010B1A1
:101B10000120009001E0002000900098012843D1AE
:101B20002348006840F0100021490860084600681A
:101B300020F0030008600846006840F002000860DA
:101B40001A48406819494860084640684860084695
:101B5000406840F4806048600846406820F47C108B
:101B600048600846406840F4E8104860084600684D
:101B700040F08070086000BF0C48006800F0007002
:101B80000028F9D00948406820F003000749486060
:101B90000846406840F00200486000BF03484068C3
:101BA00000F00C000828F9D10CBD00000010024024
:101BB0000020024010B500F001FA10BD10B5134826
:101BC000006840F00100114908600846406810496B
:101BD00008400E494860084600680E4908400B4915
:101BE00008600846006820F48020086008464068C5
:101BF00020F4FE0048604FF41F008860FFF766FF86
:101C00004FF000600449086010BD00000010024061
:101C10000000FFF8FFFFF6FE08ED00E010B501211F
:101C2000880700F055F9012803D10121800700F051
:101C30004BF807480088401C054908800846008882
:101C4000022804DB0020088001200249087010BD32
:101C5000100000200E00002010B50121064800F001
:101C600037F918B10121044800F02EF80348008824
:101C700000F000FB10BD0000000400401600002032
:101C800010B501210D4800F023F9012803D10121ED
:101C90000A4800F019F80A480088401C00B20849B8
:101CA00008800846B0F90000B0F57A7F04DB002018
:101CB000088001200349087010BD0000000C00409E
:101CC000120000200F000020CA430282704721B199
:101CD000028842F00102028004E002884FF6FE739F
:101CE0001A4002807047000010B5044668488442DC
:101CF00008D10121C014FFF761FD0021E014FFF7B6
:101D00005DFDC4E0B4F1804F08D101210846FFF722
:101D100035FD00210120FFF731FDB8E05D48844228
:101D200008D101210220FFF729FD00210220FFF741
:101D300025FDACE05848844208D101210420FFF77A
:101D40001DFD00210420FFF719FDA0E05348844247
:101D500008D101210820FFF711FD00210820FFF71D
:101D60000DFD94E04E48844208D101211020FFF778
:101D700005FD00211020FFF701FD88E0494884425D
:101D800008D101212020FFF7F9FC00212020FFF7D6
:101D9000F5FC7CE04448844208D101214014FFF75F
:101DA0000DFD00216014FFF709FD70E03F488442FB
:101DB00009D10121C804FFF701FD00214FF40020E3
:101DC000FFF7FCFC63E03A48844209D10121080591
:101DD000FFF7F4FC00214FF48010FFF7EFFC56E012
:101DE0003448844209D101214805FFF7E7FC00216E
:101DF0004FF40010FFF7E2FC49E02F48844208D17D
:101E000001214020FFF7BAFC00214020FFF7B6FC7B
:101E10003DE02A48844208D101218020FFF7AEFC32
:101E200000218020FFF7AAFC31E02548844208D138
:101E300001218015FFF7A2FC0021A015FFF79EFCF1
:101E400025E02048844209D101210804FFF7B6FCAF
:101E500000214FF48030FFF7B1FC18E01A488442AB
:101E600009D101214804FFF7A9FC00214FF40030FB
:101E7000FFF7A4FC0BE01548844208D10121880437
:101E8000FFF79CFC00214FF48020FFF797FC10BD6A
:101E9000002C01400004004000080040000C0040FD
:101EA000001000400014004000340140004C01408C
:101EB000005001400054014000180040001C004048
:101EC0000020004000400140004401400048014023
:101ED00030B50246002000230024158A05EA0103DC
:101EE000958905EA010413B10CB1012000E000203E
:101EF00030BD1AB183890B43838102E083898B4310
:101F00008381704782884FF68F731A40828082885F
:101F10000A43828070470000002202881D4B9842CD
:101F20000ED01D4B98420BD0B0F1804F08D01B4B08
:101F3000984205D01A4B984202D01A4B984204D1CD
:101F40004FF68F731A404B881A43174B984207D0AD
:101F5000164B984204D04FF6FF431A40CB881A43E1
:101F600002808B8883850B8803850A4B98420BD0AF
:101F7000094B984208D00E4B984205D00D4B984221
:101F800002D00D4B984201D10B7A03860123838244
:101F900070470000002C0140003401400004004064
:101FA00000080040000C00400010004000140040F9
:101FB00000400140004401400048014004480068DE
:101FC00020B103480068401E0149086070470000C6
:101FD0002C00002008B50020009040F22551204838
:101FE00000F075F858B12520FFF7F8FA1C4800F00A
:101FF00029F9C0B200909DF8000000F047F90821CF
:10200000174800F057F8012806D10821144800F0BD
:102010002DF8134800F016F940F22771104800F02F
:1020200056F8E0B140F227710D4800F028F825205D
:10203000FFF7D4FA6846FFF71BFD9DF8001008482B
:1020400000F005F90748FFF765FB40B1002006499D
:102050000870002240F22771014800F062F808BDC4
:1020600000380140540000201400002001F40072E8
:10207000B2F5007F00D100BFCA430280704710B59F
:102080000022002340F66A14A14200D100BF0A12C8
:1020900001249440A3B2DC43048010BD21B18289A5
:1020A00042F40052828104E082894DF6FF731A40A7
:1020B0008281704702460020B1F5007F00D100BF49
:1020C00013880B400BB1012000E00020704770B571
:1020D0000246002400230025002040F66A16B14283
:1020E00000D100BFC1F3421501F01F03012606FA1B
:1020F00003F3012D02D19689334006E0022D02D16F
:10210000168A334001E0968A33400C12012606FA03
:1021100004F41688344013B10CB1012000E0002013
:1021200070BDF0B50346002400260025002040F6CF
:102130006A17B94200D100BF1846C1F3421401F03A
:102140001F06012707FA06F5012C01D10C3004E027
:10215000022C01D1103000E014301AB107682F436F
:10216000076002E00768AF430760F0BD2DE9F04764
:1021700086B005460E460024A24600BFA1460027B1
:10218000B08900B100BF2F462C8A4CF6FF70044086
:10219000F08804432C82AC894EF6F3100440B088DA
:1021A00031890843718908430443AC81AC8A4FF6F6
:1021B000FF400440B0890443AC8201A8FFF734FB20
:1021C0001F48874202D1DDF810A001E0DDF80CA025
:1021D000A88900F4004040B10AEBCA0000EB0A10E5
:1021E00031684900B0FBF1F807E00AEBCA0000EBE8
:1021F0000A1031688900B0FBF1F86420B8FBF0F0F8
:1022000004012009642101FB1089A88900F4004021
:1022100040B1322000EBC900B0FBF1F000F0070044
:10222000044308E0322000EB09106421B0FBF1F018
:1022300000F00F0004432C8106B0BDE8F0870000D9
:102240000038014001468888C0F308007047C1F398
:102250000802828070474FF416510160002181808E
:10226000C18001810C21418100218181704700BF23
:10227000FEE7000031B50024012269460248FEF75E
:102280009BFFC4B2204638BD3401002031B5002484
:10229000012269460248FEF76BFFC4B2204638BDF2
:1022A000600000200FB4054B10B503A9044A029842
:1022B00000F0DAF810BC5DF814FB00006F2B00088A
:1022C0004400002002E008C8121F08C1002AFAD109
:1022D00070477047002001E001C1121F002AFBD1A6
:1022E000704700002DE9FF5F82B00021DDE9043076
:1022F000020DDDF840B0034318D044F61050A2F2AE
:10230000FF3242431514119801281FD0A5EB0B0092
:10231000401C5FEA000A4FF000064E4FDFF838918C
:10232000B046504615D5CAF1000413E011980124B7
:102330004AA3012801D16FEA0B010298119AC0E962
:102340000031C0E9024206B0BDE8F09FCBF10000C9
:10235000DFE704460021404A491842EB0450CDE92A
:10236000001012E0E00707D032463B46404649469F
:10237000FDF7FCFE8046894632463B46104619462C
:10238000FDF7F4FE06460F466410002CEAD1DDE9A5
:102390000401DDE90023BAF1000F06DAFDF7E6FEDD
:1023A00042464B46FDF7E2FE05E0FDF751FF42468F
:1023B0004B46FDF74DFF04460E460022284BFEF724
:1023C0008DF903D84FF0FF30014607E00022254B7E
:1023D00020463146FEF7C2F8FEF767F9102409E0FF
:1023E000002C0ADB0A220023FDF7F3FF039B3032A7
:1023F0001A55641E50EA0102F2D1641C039AC4F11A
:1024000011031444119A012A03D0012208430DD16B
:102410000AE0084304D000204FF0110B119072E73E
:10242000A3EB0B056D1E0DE05B4504DD4FF00002D4
:1024300005F1010504E003DA4FF00002A5F1010502
:10244000002AECD002981199C0E90231C0E9004598
:1024500079E70000000014400000F03F3000000069
:102460000000F0430000E03F2DE9FF4F95B09A4691
:10247000884606460025EEE1252877D10024274628
:10248000F94A0121039400E0044316F8013F203B80
:1024900001FA03F01042F7D130782A2811D06FF0FA
:1024A0002F033078A0F13002092A16D8039A44F09D
:1024B000020402EB820203EB42021044761C0390FA
:1024C000EFE758F8042B0392002A03DA504244F451
:1024D0000054039044F00204761C30782E2816D164
:1024E00016F8010F44F004042A280DD06FF02F02D3
:1024F0003078A0F13003092B09D807EB870302EBF2
:102500004303C718761CF3E758F8047B761C307831
:102510006C280FD006DC4C2817D068280DD06A280C
:1025200014D104E0742810D07A280FD10DE044F4BF
:1025300000140AE044F4801401E044F4401472787A
:10254000824202D104F58014761C761C307866280D
:102550000BD013DC582877D009DC002875D045282B
:10256000F6D04628F4D047281AD193E118E0632822
:1025700035D0642879D0652812D18BE1702873D0CA
:1025800008DC6728F1D069286FD06E280DD06F283D
:1025900006D1ACE073282CD0752874D0782853D09D
:1025A0005246179990476D1C54E1C4F3025002281B
:1025B00009D003280DD0D8F8001004280DD00D60E4
:1025C00008F1040846E1D8F80010EA17C1E9005202
:1025D000F6E7D8F800100D80F2E70D70F0E718F874
:1025E000041B8DF8001000208DF80100EB4601203F
:1025F00003E058F804BB4FF0FF3061074FF00001D3
:1026000002D40DE009F101018946B9420FDA814592
:10261000F8DB1BF809100029F4D108E009F10101E9
:1026200089468142FADB1BF809100029F6D103988C
:102630005346A0EB090721463846179A00F080FA66
:10264000284400EB090507E044E008E10DE01BF831
:10265000010B524617999047B9F10109F7D2534639
:1026600021463846179AF2E039E00A21C4F30252B3
:102670004FF0000B0091022A06D058F8040BC11746
:10268000032A09D00AE023E008F1070020F007023E
:10269000F2E80201904605E000B2C117042A01D118
:1026A00040B2C117002906DA0A460021404261EB18
:1026B00002012D2202E0220504D52B228DF80420F0
:1026C000012203E0E20701D02022F7E7914657E01C
:1026D0000A2100E010214FF0000B00910BE01021C7
:1026E0004FF0000B44F004040827009103E0082099
:1026F0004FF0000B0090C4F30252022A05D058F8A4
:10270000040B0021032A08D008E008F1070020F09C
:102710000702F2E80201904603E080B2042A00D1E9
:10272000C0B24FF0000922072AD53278702A07D0AC
:10273000DDF800C08CF0100C5CEA0B0C05D00EE04C
:1027400040228DF80420012208E050EA010306D05F
:1027500030238DF804308DF8052002229146009B2D
:1027600083F0080353EA0B030AD150EA010201D1B6
:10277000620705D530228DF804204FF001097F1E35
:102780003278582A04D039A20C920CAA02920BE09B
:102790003BA2F9E75B46009AFDF71BFE0C9B9B5C96
:1027A000029A521E0292137050EA0102F2D102986C
:1027B00004A9081A00F1200B600702D524F4803424
:1027C00000E001275F4502DDA7EB0B0000E00020E1
:1027D00000EB0B01009003984944401A0390E0037A
:1027E00006D453462146179A039800F0A9F90544E8
:1027F000002706E001A85246C05D179990476D1C5E
:102800007F1C4F45F6DBE0030CD553462146179A53
:10281000039800F095F9054404E0302052461799DA
:1028200090476D1C0099481E00900029F5DC08E0D7
:102830000298029952460078491C029117999047D4
:102840006D1CBBF10001ABF1010BF1DC5BE100F0B1
:1028500065F90544761C307800287FF40DAE19B078
:102860002846BDE8F08F00000928010030313233DE
:1028700034353637383961626364656600000000BC
:1028800030313233343536373839414243444546A6
:1028900000000000600700D4062708F1070020F0C0
:1028A0000700F0E80223804603F0004C5FEA0C00CA
:1028B00001D097A009E0200501D596A005E0E0072A
:1028C00001D095A001E0AFF24C001390307823F0D6
:1028D000004365280CD006DC452809D046281DD0C9
:1028E00047287FD13BE0662818D067287AD136E0A8
:1028F0000021112F01DB112000E0781CCDE900013F
:1029000004A90CA8FFF7EEFCDDE90D010C9A4FF0CD
:10291000000B07F10109109200914EE04FF00040CA
:102920000097CDE9011004A90CA8FFF7DBFCDDE955
:102930000D020C9B0F994FF0000B914610930092E3
:1029400011B9791C00EB0109B7EB090003D4C0F100
:10295000FF3B07F10109A9EB0700019042E0012FBD
:1029600000DA01270021112F01DD112000E0384697
:10297000CDE9000104A90CA8FFF7B4FCDDE90D01C5
:102980000C9A00914FF0000BB946109221070FD41A
:10299000009A4A4503DA914601E0A9F10109B9F12B
:1029A000010F05DD109AA9F10101515C3029F4D025
:1029B000B84202DA10F1040F03DA0121CDE9011067
:1029C00010E0002803DC8344A9EB000102E0411C75
:1029D000494500DD8946A0EB0B00401C01904FF0FB
:1029E00000400290200705D40198484502DB4FF0D3
:1029F000FF30019000208DF84B0002980DF14B073D
:102A0000B0F1004F25D002200C902B200D900298A1
:102A100000280CDA404202902D200D9007E00A2198
:102A20000298FDF7C0FC3031029007F8011D0C99A7
:102A3000481E0C900029F2DC02980028EFD1791E84
:102A40000D980870307800F0200040F0450007F83D
:102A5000020D11A8C01BC01D02901398007800B190
:102A6000012000EB0901019801EBE071029801449B
:102A70000398401A401E0390E00306D453462146B3
:102A8000179A039800F05CF805441398007818B181
:102A90005246179990476D1CE00323D553462146B3
:102AA000179A039800F04CF805441BE0BBF1000FA7
:102AB00007DB0098584504DD1098179910F80B00B3
:102AC00001E0179930205246904701980BF1010B15
:102AD000401E05F10105019004D12E2052461799A0
:102AE00090476D1CB9F10001A9F10109DEDC05E098
:102AF00017F8010B5246179990476D1C0299481E12
:102B000002900029F4DC53462146179A03989EE66A
:102B10002D0000002B000000200000002DE9F041F6
:102B2000044600251E461746880404D405E03946AD
:102B30002020B0476D1C641EF9D52846BDE8F08101
:102B40002DE9F041044600251E469046C80301D5F4
:102B5000302700E02027880404D505E041463846A8
:102B6000B0476D1C641EF9D52846BDE8F08170B5EC
:102B700004460D46E0B2FEF799FF204670BD000006
:102B8000FEF77BFCFEF722FC04A0FFF78BFB03E0C3
:102B9000FEF77AFDFEF771FDFAE70000496E6974F1
:102BA0002053797374656D20686173206265656E6A
:102BB0002066696E69736865642E0D0A0000000066
:102BC000E02B00080000002048000000C42200089C
:102BD000282C000848000020C0050000D42200086E
:102BE00000000000000000000000000000000000E5
:102BF00000000000000000000000000001020304CB
:102C00000102030406070809020406080000000088
:102C100000A24A04000000000000000001020304BA
:082C200006070809000000008E
:0400000508000131BD
:00000001FF
