:020000040800F2
:10000000700800204901000809140008B511000813
:100010000514000811070008FB220008000000007A
:10002000000000000000000000000000D1190008DE
:10003000530F00080000000039150008791B000864
:100040006301000863010008630100086301000800
:1000500063010008630100086301000863010008F0
:1000600063010008630100086301000863010008E0
:1000700063010008630100086301000863010008D0
:1000800063010008630100086301000863010008C0
:1000900063010008630100086301000863010008B0
:1000A00063010008630100086301000863010008A0
:1000B000E11B00081D1C0008630100086301000823
:1000C0006301000863010008630100086301000880
:1000D00063010008991F000863010008630100081C
:1000E0006301000863010008630100086301000860
:1000F0006301000863010008630100086301000850
:100100006301000863010008451C00086301000842
:10011000630100086301000863010008630100082F
:1001200063010008630100088D0C000863010008EA
:10013000DFF810D000F0CCF900480047C1230008D8
:10014000AFF300807008002006488047064800474B
:10015000FEE7FEE7FEE7FEE7FEE7FEE7FEE7FEE777
:10016000FEE7FEE7811B0008310100082DE9FE4F84
:1001700081EA030404F0004421F0004100944FF0B0
:10018000000B23F0004350EA01045ED052EA03045E
:100190005BD0C3F30A54C1F30A552C44A4F2F334E0
:1001A0000194A0FB0254C1F3130141F48011C3F385
:1001B000130343F4801301FB024400FB034E840A43
:1001C000970A44EA815447EA8357A4FB07680295DB
:1001D0008D0A05FB07854FEA932C04FB0C54270579
:1001E000029D4FEA065847EA1637B5EB08056EEB55
:1001F000070C870E920E47EA811742EA8312A7FB8B
:100200000201B6EB0B0164EB00042B0D43EA0C3347
:100210005E1844EB1C50DA465146E7FB0201C5F379
:1002200013044FEA0B3343EA14534FEA0432019CA0
:1002300043EA0603A4F10C040294009CCDE900B447
:1002400000F0F8F803B0BDE8F08F00200146F9E7B0
:100250002DE9F04D81EA030404F0004B21F0004544
:1002600014464FF0000A23F0004150EA050220D066
:1002700054EA01021DD0C5F30A570246C5F3130321
:10028000C1F31300C1F30A5640F4801543F4801300
:10029000A7EB0608101BD64608F2FD3873EB0500E5
:1002A00002D308F1010801E092185B41B8F1000F98
:1002B00003DA00200146BDE8F08D00204FF48011E4
:1002C000064684460EE0171B73EB050705D3121B89
:1002D00063EB050306434CEA010C49084FEA300082
:1002E00092185B4150EA0107EDD152EA030012D0A7
:1002F00082EA040083EA0501084305D0101BAB41E4
:1003000006D20122002306E000224FF0004302E063
:100310006FF0010253101AEB06004CEB085110EB82
:100320000A0041EB0B01BDE8F04D00F074B80EB5CA
:1003300040F2334102910021CDE900110A460B46FB
:1003400000F078F803B000BD20F00040C10DC0F30C
:10035000160040F400007F2901DA0020704796293A
:1003600003DCC1F19601C840704796398840704758
:1003700001F0004330B421F0004150EA010206D000
:100380000A0DA2F56072C1F31301002A02DC30BC31
:1003900000207047440F44EAC104C100E01830BC9B
:1003A00000EBC250AFF300800029A8BF7047401C8B
:1003B000490008BF20F00100704710B4B0FA80FC7B
:1003C00000FA0CF050EA010404BF10BC704749B1B8
:1003D000CCF1200421FA04F411FA0CF118BF012128
:1003E00021430843A3EB0C01CB1D4FEA00614FEA08
:1003F000102042BF002010BC704700EBC3501044D7
:100400000029A4BF10BC7047401C490008BF20F061
:10041000010010BC704710B5141E73F1000408DA17
:10042000401C41F1000192185B411A4301D120F0B8
:10043000010010BD2DE9F04D92469B4611B1B1FA75
:1004400081F202E0B0FA80F22032904600F052F8D9
:1004500004460F4640EA0A0041EA0B0153465A4659
:10046000084313D0114653EA010019D0C8F14002E5
:10047000504600F04EF805460E4650465946424654
:1004800000F038F8084305D0012004E02046394642
:10049000BDE8F08D0020054346EAE0762C43374363
:1004A0000A986305E40AA0EB08000022FD0A44EA6A
:1004B00047540A3002D500200146E9E7010510192A
:1004C0006941DDE9084500196941BDE8F04DA2E741
:1004D000064C074D06E0E06840F0010394E8070091
:1004E00098471034AC42F6D3FFF726FE00240008EC
:1004F00020240008202A04DB203A00FA02F1002020
:1005000070479140C2F1200320FA03F31943904051
:100510007047202A04DB203A21FA02F000217047BC
:1005200021FA02F3D040C2F120029140084319465B
:10053000704770B58C1810F8015B15F0070301D1F6
:1005400010F8013B2A1106D110F8012B03E010F836
:10055000016B01F8016B5B1EF9D12B0705D4002359
:10056000521E0DD401F8013BFAE710F8013BCB1AFB
:10057000921C03E013F8015B01F8015B521EF9D5F0
:10058000A142D8D3002070BD21B1826842F001029F
:10059000826003E0826822F001028260704721B12C
:1005A000826842F48072826003E0826822F4807282
:1005B0008260704721B1826842F48012826003E059
:1005C000826822F4801282607047014600208A68A7
:1005D00002F004020AB1012000E000207047014649
:1005E00000208A6802F008020AB1012000E0002021
:1005F0007047000030B502460020002350680F4CC1
:1006000020400D790C6844EA05242043506090682E
:100610000B4C2040D1E902542C434D7944EA450467
:1006200020439060D06A20F470000C7C641EE4B219
:10063000234340EA0350D06230BD0000FFFEF0FFCC
:10064000FDF7F1FFF0B504460D4600200021092D0D
:1006500011DDE068A5F10A0606EB4607072606FA53
:1006600007F18843A5F10A0606EB460603FA06F1F0
:100670000843E0600CE0206905EB4507072606FA11
:1006800007F1884305EB450603FA06F108432061AC
:10069000072A0FDA606B561E06EB86071F2606FA3E
:1006A00007F18843561E06EB860605FA06F1084355
:1006B000606322E00D2A0FDA206BD61F06EB860757
:1006C0001F2606FA07F18843D61F06EB860605FAB1
:1006D00006F10843206310E0E06AA2F10D0606EB84
:1006E00086071F2606FA07F18843A2F10D0606EBDE
:1006F000860605FA06F10843E062F0BD816841F024
:10070000080181607047816841F004018160704791
:1007100000BFFEE700200149087070470F0000206D
:1007200000200149087070470E00002000B587B016
:100730004FF4004000F08AFF0121480200F0C2FFA0
:100740000121102000F0BEFF1020ADF8180000209D
:100750008DF81B0006A91E4800F070FC00200190D7
:1007600001208DF8080000208DF809004FF40020CA
:1007700003900020049001208DF8140001A9154871
:10078000FFF738FF072301220E211248FFF75AFF17
:1007900001211048FFF703FF01210E48FFF70AFF70
:1007A00001210C48FFF7F0FE0A48FFF7A7FF00BF42
:1007B0000848FFF714FF0028FAD10648FFF7A3FF07
:1007C00000BF0448FFF701FF0028FAD107B000BDC1
:1007D000000801400024014000B585B0012104203B
:1007E00000F070FF0121480700F04CFF1020ADF829
:1007F000100003208DF8120000208DF8130004A9CA
:100800000C4800F01BFC2C2000900020019002906E
:100810000390694600F010FA0121002000F0F6F97B
:100820000021084600F022FA0121002000F0DAF948
:1008300005B000BD0008014000B58BB0012108469D
:1008400000F010FF114800F05BFA114800901148C9
:10085000019000200290012003900020049080204D
:100860000590400006908000079020200890C0016D
:10087000099000200A906946044800F006FB012117
:10088000024800F031FA0BB000BD00000800024041
:100890004C2401407802002003B58DB001210220D4
:1008A00000F0E0FE1A4800F02BFA1A4802900D986A
:1008B00003900E9805901020049000200690802050
:1008C0000790400008908000099020200A900002C4
:1008D0000B9000200C9002A90D4800F0D6FA3A20A7
:1008E0008DF8040000208DF805008DF80600012029
:1008F0008DF8070001A800F095FD012202210448AF
:1009000000F0BAFA0121024800F0EEF90FB000BD84
:10091000300402400874004008B50121102000F0A6
:10092000D1FE2020ADF8000003208DF80200102039
:100930008DF803006946044800F080FB0022202166
:10094000014800F00FFC08BD0010014010B54FF445
:10095000A06000F09FFD10BD10B500F0D3FE4FF475
:10096000803000F091FF00F0EDFF0446012C24D10F
:10097000102000F049FB022000F054FB002000F0A2
:1009800077FF002000F0B2FFA00200F0A3FF4FF4B9
:10099000E011200400F0BCFF012000F0B3FF00BF15
:1009A000392000F03FFF0028FAD0022000F0BEFFFF
:1009B00000BF00F055FF0828FBD110BD7FB50546EC
:1009C0000C460121084600F05DFEADF80850ADF878
:1009D00004400020ADF80A00ADF8060001A94FF070
:1009E000804001F07BFA01221146900701F063FA82
:1009F0001C208DF8000000208DF8010003208DF8E8
:100A0000020001208DF80300684600F00BFD012173
:100A1000880701F03EF97FBD7FB505460C460121F0
:100A2000022000F02FFEADF80850ADF80440002081
:100A3000ADF80A00ADF8060001A90F4801F04EFA22
:100A400020210D4801F040FA012211460A4801F028
:100A500032FA1D208DF8000001208DF801008DF87C
:100A600002008DF80300684600F0DCFC012102481A
:100A700001F00FF97FBD0000000400403EB50546BF
:100A80000C460121042000F0FDFD0C4801F00EF998
:100A9000ADF80450ADF800400020ADF80600ADF808
:100AA00002006946054801F019FA2021034801F0C7
:100AB0000BFA0121014801F0ECF83EBD00080040AE
:100AC0007FB505460C460121082000F0DBFDADF89E
:100AD0000850ADF804400020ADF80A00ADF806005B
:100AE00001A90E4801F0FAF9012211460B4801F064
:100AF000E2F932208DF8000000208DF8010003207B
:100B00008DF8020001208DF80300684600F08AFC91
:100B10000121024801F0BDF87FBD0000000C00403B
:100B200010B586B004460121880300F0CBFD0121F9
:100B3000042000F0C7FD4FF40070ADF81400182039
:100B40008DF8170003208DF8160005A9224800F043
:100B500075FA4FF48060ADF8140004208DF817008A
:100B600005A91D4800F06AFA01A801F056FB01949E
:100B70000020ADF80800ADF80A00ADF80C000C201C
:100B8000ADF80E000020ADF8100001A9134801F0E7
:100B9000CFFA25208DF8000001208DF801008DF896
:100BA00002008DF80300684600F03CFC012240F290
:100BB00025510A4801F097FA012240F227710748AF
:100BC00001F091FA0121054801F04AFA0020044998
:100BD000087006B010BD0000000801400038014058
:100BE0001400002039B1084A1268012383401A43D7
:100BF000054B1A6006E0044A1268012383409A43B9
:100C0000014B1A60704700000074004041B1094A6E
:100C100012684FF4805383401A43064B1A6007E072
:100C2000044A12684FF4805383409A43014B1A6080
:100C3000704700000074004030B5002200230A4CC9
:100C4000226840F6FE748440A243D1E900452C435B
:100C50008D682C43CD6844EA050303FA00F422436F
:100C6000014C226030BD00000074004008B5002235
:100C70000092054A009200F10802009B1A4400927B
:100C8000009A116008BD00000074004010B50B48C8
:100C900000F0DCF880B13A2000F01F020121914001
:100CA000074A430942F8231000BF064800F00EF837
:100CB000054803C8FFF7F0FD10BD0000000200105A
:100CC00080E200E0000100101800002000F08051D8
:100CD00011B10349086001E0024948607047000013
:100CE000040402400000024021B1026842F0010207
:100CF000026004E002684FF6FE731A40026070471B
:100D000001684FF6FE7211400160002101604160F0
:100D10008160C1604B49884208D14A490839496815
:100D200041F00F01474A083A51608AE045491431C1
:100D3000884208D143490839496841F0F001414AE5
:100D4000083A51607DE03F492831884208D13D4949
:100D50000839496841F470613A4A083A516070E0D4
:100D600038493C31884208D136490839496841F44C
:100D70007041344A083A516063E032495031884248
:100D800008D130490839496841F470212D4A083AA0
:100D9000516056E02B496431884208D1294908390D
:100DA000496841F47001274A083A516049E02549F1
:100DB0007831884208D123490839496841F0706187
:100DC000204A083A51603CE01F49884206D1011F81
:100DD000096841F00F01021F116032E01A49143115
:100DE000884208D11849091F096841F0F001164AE4
:100DF000121F116025E014492831884208D1124998
:100E0000091F096841F470610F4A121F116018E050
:100E10000D493C31884208D10B49091F096841F44A
:100E20007041094A121F11600BE007495031884296
:100E300007D10549091F096841F47021024A121FB0
:100E4000116070470800024008040240014600207B
:100E5000002201F0805313B1054B1A6801E0054BE5
:100E60001A6802EA01030BB1012000E0002070477C
:100E700000040240000002401AB103680B43036003
:100E800002E003688B430360704710B500220268DC
:100E900047F6F0739A430C6A8B6823430C6923432B
:100EA0004C6923438C692343CC6923434C6A234315
:100EB0008C6A23431A430260CB6843600B688360EB
:100EC0004B68C36010BD30B50346002016E0B3F98F
:100ED00000509C68645D0C541C88641C24B21C8007
:100EE000B3F90040B3F90450AC4201DB00241C808C
:100EF000441C20B2DC88641E24B2DC80B3F90640B6
:100F0000002C01DD9042E2DB30BD30B5034600200D
:100F100018E0B3F900509C6834F8154021F81040EF
:100F20001C88641C24B21C80B3F90040B3F904503F
:100F3000AC4201DB00241C80441C20B2DC88641E0F
:100F400024B2DC80B3F90640002C01DD9042E0DBE6
:100F500030BD704770B50346002016E00C5CB3F955
:100F600002609D68AC555C88641C24B25C80B3F957
:100F70000240B3F90450AC4201DB00245C80441C05
:100F800020B2DC88641C24B2DC80B3F90640B3F9DB
:100F90000450AC4201DA9042E0DB70BD70B503460C
:100FA000002018E031F81040B3F902609D6825F880
:100FB00016405C88641C24B25C80B3F90240B3F92B
:100FC0000450AC4201DB00245C80441C20B2DC886D
:100FD000641C24B2DC80B3F90640B3F90450AC427F
:100FE00001DA9042DEDB70BD10B5012004490870C3
:100FF000012240F22771034801F075F810BD00008E
:1010000014000020003801400549096821F0100152
:10101000034A1160114609680143116070470000DE
:101020000020024001460020034A106800F038000A
:101030000843106070470000002002402DE9F04195
:10104000024600250026002000230024002791F8F6
:1010500003C00CF00F0591F803C00CF0100CBCF1AC
:10106000000F03D091F802C04CEA050591F800C0CA
:10107000BCF1000F31D0146800202BE04FF0010CC0
:101080000CFA00F3B1F800C00CEA03069E4220D12E
:1010900083004FF00F0C0CFA03F7BC4305FA03FC76
:1010A0004CEA040491F803C0BCF1280F06D14FF0BC
:1010B000010C0CFA00FCC2F814C00AE091F803C05D
:1010C000BCF1480F05D14FF0010C0CFA00FCC2F83E
:1010D00010C0401C0828D1D31460B1F800C0BCF186
:1010E000FF0F34DD546800202EE000F1080C4FF0B3
:1010F000010808FA0CF3B1F800C00CEA03069E429E
:1011000021D183004FF00F0C0CFA03F7BC4305FA12
:1011100003FC4CEA040491F803C0BCF1280F05D18C
:1011200000F1080C08FA0CF8C2F8148091F803C01A
:10113000BCF1480F07D100F1080C4FF0010808FA84
:101140000CF8C2F81080401C0828CED35460BDE8CB
:10115000F08102460020D3680B400BB1012000E073
:10116000002070470AB1016100E041617047000052
:1011700001480078704700000F0000200148007807
:10118000704700000E00002000487047E800002073
:10119000004870472000002000487047B001002040
:1011A00003490A6802604A68426009890181704700
:1011B000AC02002000BFFEE710B540F2CF2140F2A4
:1011C0001F30FFF729FCFFF7B1FAFFF735FB642268
:1011D0000249034800F0BCF810BD0000A403002041
:1011E0009803002010B5FFF7D3FF0849086064207A
:1011F0004860FFF7F1FA40F2CF2140F21F30FFF7CD
:101200003DFC024803C8FFF747FB10BD1800002053
:1012100010B500F0B5FC00F04EF800F013F84FF4F4
:10122000E13000F0A8F800F087F800F007F800F0CF
:101230004FF8FFF7D7FFFFF7BFFF10BD10B5FFF75F
:101240006BFB10BD10B5FFF781FB10BD00210C4AF0
:10125000117051709170002005E000220849C91CEE
:101260000A54411C08B20728F7DB0021044A5172D6
:10127000044A1170044A1170044A1170704700004A
:10128000AC0200200A0000200B0000200C0000200F
:10129000704730B50B460024048044808280C480AF
:1012A0008360002104E0002485686C544C1C21B24A
:1012B0009142F8DB30BD10B5FFF74EFB10BD704713
:1012C00010B5FFF7C3FFFFF7E3FFFFF7F8FF10BD0F
:1012D00030B5164800684FF47A72B0FBF2F1B1F104
:1012E000807F01D301201DE021F07F40401E4FF0A0
:1012F000E022506150170F22002807DA13071D0E55
:101300000B4B00F00F04241F1D5503E013071C0EA8
:10131000084B1C5400BF00204FF0E02290610720D2
:101320001061002008B100BFFEE730BD940200202C
:1013300018ED00E000E400E010B5472140F2E7308E
:10134000FFF73CFB472140F2E730FFF7B9FB10BD48
:1013500030B50B460024048044808280C4808360C2
:10136000002105E00024856825F811404C1C21B2BD
:101370009142F7DB30BD10B5044600F005F8204679
:10138000FFF7CEFB10BD000010B5002406E00020E2
:101390000949085509490855601C04B2642CF6DB5C
:1013A000642205490648FFF774FF64220349054893
:1013B000FFF76FFF10BD0000D002002034030020B3
:1013C000B8020020C402002070B504460B48008813
:1013D000401C0A49088008460088A0420DDB002016
:1013E000088020210648FFF7B4FEC0F10100C5B215
:1013F0002A4620210248FFF7B5FE70BD08000020F4
:101400000010014000BFFEE77047000000F01F021F
:1014100001219140024A430942F82310704700001D
:1014200080E200E070B5002100230F22C47804B3ED
:10143000154C246804F4E064C4F5E064210AC1F1A9
:101440000403CA40447804FA03F184781440214329
:1014500009010E4C0678A155047804F01F050124FB
:10146000AC4005786D11AD0005F1E025C5F80041EF
:1014700009E0047804F01F050124AC40044D06780F
:10148000761145F8264070BD0CED00E000E400E068
:1014900080E100E002490143024A11607047000008
:1014A0000000FA050CED00E01CB50446207818B9E0
:1014B000FFF76EFE00900CE02078012803D1FFF7C3
:1014C0006BFE009005E02078022802D1FFF75CFE59
:1014D000009064200190DDE9000100F0D1FA0020C5
:1014E0001CBD70B5044600252078802803DA01254C
:1014F000204600F002F8284670BD10B5037800229F
:1015000008210DE05406220E445C42EAD412445CE9
:1015100044F080044454445C1C44E3B24C1EE1B2E9
:101520000129EFDC42F08004447044781C44E3B2AB
:1015300043F08004447210BD704710B5FFF718FEE9
:1015400008B1FFF7E7F810BD2DE9FC47FFF716FEDD
:10155000002845D0012101A800F02CFA18B19DF80F
:10156000040000F049F81F480078401C1D4908702D
:101570000846007804282EDB684600F0FFF938B3EF
:10158000BDF80000FEF7D3FE06464FF06632164B5C
:10159000FEF7ECFD04460022144BFEF759FE804690
:1015A000FEF7E6FE82465046FEF7CEFE1049114A8F
:1015B000127888540F480078401C0E49087008467D
:1015C0000078062804DB00200870094800F02CFA97
:1015D000002004490870FA20FFF7F6FEFFF7A0F894
:1015E000BDE8FC870000002066660A4000FEAF40B0
:1015F000020000200100002030B587B0044617E04B
:1016000001A8FFF7CDFD01A807C804AB07C39DF8EB
:10161000100071280AD10DF11300FFF745FF0546B0
:101620002A468021712000F0D4F900E000BF00BFFD
:10163000204600F0FFFD0028E2D107B030BD014692
:10164000C88808B9012070470020FCE70146002047
:10165000034A506820F4404008435060704700003F
:101660000010024029B1064A52690243044B5A61F4
:1016700004E0034A52698243014B5A6170470000FB
:101680000010024029B1064AD2690243044BDA61D4
:1016900004E0034AD2698243014BDA6170470000DB
:1016A0000010024029B1064A12690243044B1A6134
:1016B00004E0034A12698243014B1A61704700003B
:1016C0000010024029B1064A92690243044B9A6114
:1016D00004E0034A92698243014B9A61704700001B
:1016E0000010024029B1064AD2680243044BDA6076
:1016F00004E0034AD2688243014BDA60704700007D
:10170000001002400F48006840F001000D490860D9
:10171000084640680C4908400A4948600846006885
:101720000A490840074908600846006820F48020FC
:1017300008600846406820F4FE0048604FF41F002F
:1017400088607047001002400000FFF8FFFFF6FEBF
:1017500030B500210022002400232D4D6D6805F0D6
:101760000C0121B1042905D0082923D105E0294D18
:10177000056022E0274D05601FE0254D6D6805F4EA
:101780007012234D6D6805F48034022505EB9242FA
:101790001CB9214D554305600BE01D4D6D6805F4E6
:1017A00000351DB11C4D5543056002E0194D5543F0
:1017B000056002E0174D056000BF00BF144D6D6865
:1017C00005F0F0010909154D6B5C0568DD404560C9
:1017D0000F4D6D6805F4E061090A104D6B5C4568BA
:1017E000DD4085600A4D6D6805F46051C90A0B4DF6
:1017F0006B5C4568DD40C560054D6D6805F4404192
:10180000890B074D6B5CC568B5FBF3F5056130BD11
:101810000010024000127A0000093D007A02002008
:101820008A02002010B501460022002300204A1140
:10183000012A02D1094C236806E0022A02D1074C92
:10184000236A01E0054C636A01F01F020124944001
:101850001C400CB1012000E0002010BD001002402F
:101860000248406800F00C00704700000010024081
:1018700001460020034A506820F0F0000843506001
:1018800070470000001002401149096821F48031BE
:101890000F4A11601146096821F480211160B0F5EA
:1018A000803F03D0B0F5802F0ED106E008490968CB
:1018B00041F48031064A116007E00549096841F4A6
:1018C000A021034A116000E000BF00BF7047000084
:1018D0000010024001460020034A506820F4E060F6
:1018E000084350607047000000100240014600208D
:1018F000034A506820F4605040EAC10050607047CD
:101900000010024001490866704700000000424292
:1019100002460020044B586820F47C1042EA010380
:101920001843014B586070470010024001460020E8
:10193000034A506820F003000843506070470000DD
:101940000010024038B5002000900024002500BFA0
:101950003120FFF767FF05460098401C0090009873
:10196000B0F5A06F01D0002DF2D03120FFF75AFF63
:1019700008B1012400E00024204638BD70B50446BB
:101980000025012221460348FFF7BFFAC5B22846C9
:1019900070BD00009803002070B5044600250122A8
:1019A00021460348FFF78FFAC5B2284670BD0000F4
:1019B000B802002070B504460D4600262A4621468E
:1019C0000248FFF780FAC6B2304670BDC40200205C
:1019D0007047FEB504460E46154601208DF80000FE
:1019E00004208DF802008DF803408DF804608DF816
:1019F000055000218DF806108DF807108DF808109D
:101A0000684600F02FF8FEBD10B50446E1B2054867
:101A100000F0FFFB00BF4021024800F02DFB002832
:101A2000F9D010BD003801403EB5044610208DF8B5
:101A3000000002208DF8020020788DF80300617804
:101A40008DF80410A1788DF80510E1788DF8061056
:101A500021798DF8071061798DF80810684600F03B
:101A600001F83EBD70B5044600252046FFF739FD5C
:101A70000546002D03DD0A21204600F059FC70BD0B
:101A800003B50248DDE9001206C00CBD18000020B5
:101A900010B500F001F810BD0CB5002001900090C9
:101AA0003348006840F480303149086000BF304856
:101AB000006800F4003000900198401C01900098EC
:101AC00018B90198B0F5A06FF1D12948006800F469
:101AD000003010B10120009001E00020009000983B
:101AE000012843D12348006840F0100021490860D4
:101AF0000846006820F0030008600846006840F0CF
:101B0000020008601A484068194948600846406861
:101B100048600846406840F4806048600846406875
:101B200020F47C1048600846406840F4E8104860A3
:101B30000846006840F08070086000BF0C480068EC
:101B400000F000700028F9D00948406820F0030038
:101B5000074948600846406840F00200486000BFFE
:101B60000348406800F00C000828F9D10CBD0000C3
:101B7000001002400020024010B500F001FA10BD34
:101B800010B51348006840F001001149086008468C
:101B90004068104908400E494860084600680E49F0
:101BA00008400B4908600846006820F4802008605F
:101BB0000846406820F4FE0048604FF41F0088602B
:101BC000FFF766FF4FF000600449086010BD000099
:101BD000001002400000FFF8FFFFF6FE08ED00E0F5
:101BE00010B50121880700F055F9012803D1012122
:101BF000800700F04BF807480088401C0549088022
:101C000008460088022804DB0020088001200249E1
:101C1000087010BD100000200E00002010B501213A
:101C2000064800F037F918B10121044800F02EF8F9
:101C30000348008800F064FB10BD00000004004071
:101C40007802002010B501210D4800F023F9012889
:101C500003D101210A4800F019F80A480088401C05
:101C600000B2084908800846B0F90000B0F57A7F54
:101C700004DB0020088001200349087010BD00002B
:101C8000000C0040120000200F000020CA43028216
:101C9000704721B1028842F00102028004E002880C
:101CA0004FF6FE731A4002807047000010B50446DC
:101CB0006848844208D10121C014FFF713FD0021B8
:101CC000E014FFF70FFDC4E0B4F1804F08D101210B
:101CD0000846FFF7E7FC00210120FFF7E3FCB8E02E
:101CE0005D48844208D101210220FFF7DBFC00217E
:101CF0000220FFF7D7FCACE05848844208D101210C
:101D00000420FFF7CFFC00210420FFF7CBFCA0E06C
:101D10005348844208D101210820FFF7C3FC002169
:101D20000820FFF7BFFC94E04E48844208D101210F
:101D30001020FFF7B7FC00211020FFF7B3FC88E06C
:101D40004948844208D101212020FFF7ABFC002143
:101D50002020FFF7A7FC7CE04448844208D1012101
:101D60004014FFF7BFFC00216014FFF7BBFC70E0DC
:101D70003F48844209D10121C804FFF7B3FC002188
:101D80004FF40020FFF7AEFC63E03A48844209D1EB
:101D900001210805FFF7A6FC00214FF48010FFF792
:101DA000A1FC56E03448844209D101214805FFF7DF
:101DB00099FC00214FF40010FFF794FC49E02F48F4
:101DC000844208D101214020FFF76CFC0021402013
:101DD000FFF768FC3DE02A48844208D101218020B9
:101DE000FFF760FC00218020FFF75CFC31E0254814
:101DF000844208D101218015FFF754FC0021A01571
:101E0000FFF750FC25E02048844209D10121080455
:101E1000FFF768FC00214FF48030FFF763FC18E007
:101E20001A48844209D101214804FFF75BFC0021D4
:101E30004FF40030FFF756FC0BE01548844208D100
:101E400001218804FFF74EFC00214FF48020FFF7AA
:101E500049FC10BD002C0140000400400008004077
:101E6000000C00400010004000140040003401400D
:101E7000004C014000500140005401400018004057
:101E8000001C004000200040004001400044014090
:101E90000048014030B50246002000230024158A86
:101EA00005EA0103958905EA010413B10CB101208B
:101EB00000E0002030BD1AB183890B43838102E02A
:101EC00083898B438381704782884FF68F731A40D2
:101ED000828082880A438280704700000022028844
:101EE0001D4B98420ED01D4B98420BD0B0F1804F45
:101EF00008D01B4B984205D01A4B984202D01A4B7F
:101F0000984204D14FF68F731A404B881A43174BEF
:101F1000984207D0164B984204D04FF6FF431A4020
:101F2000CB881A4302808B8883850B8803850A4BF4
:101F300098420BD0094B984208D00E4B984205D0DE
:101F40000D4B984202D00D4B984201D10B7A03867B
:101F50000123838270470000002C014000340140BF
:101F60000004004000080040000C00400010004049
:101F7000001400400040014000440140004801407E
:101F80000448006820B103480068401E0149086009
:101F9000704700009002002008B50020009040F239
:101FA0002551204800F075F858B12520FFF72EFA8A
:101FB0001C4800F029F9C0B200909DF8000000F024
:101FC000ABF90821174800F057F8012806D108217D
:101FD000144800F02DF8134800F016F940F227716C
:101FE000104800F056F8E0B140F227710D4800F0BB
:101FF00028F82520FFF70AFA6846FFF7CDFC9DF880
:102000000010084800F005F90748FFF718FB40B139
:10201000002006490870002240F22771014800F0B4
:1020200062F808BD00380140B8020020140000200A
:1020300001F40072B2F5007F00D100BFCA430280F4
:10204000704710B50022002340F66A14A14200D167
:1020500000BF0A1201249440A3B2DC43048010BDE7
:1020600021B1828942F40052828104E082894DF6D6
:10207000FF731A408281704702460020B1F5007F4D
:1020800000D100BF13880B400BB1012000E00020FD
:10209000704770B50246002400230025002040F65A
:1020A0006A16B14200D100BFC1F3421501F01F030F
:1020B000012606FA03F3012D02D19689334006E08A
:1020C000022D02D1168A334001E0968A33400C1269
:1020D000012606FA04F41688344013B10CB101202D
:1020E00000E0002070BDF0B5034600240026002566
:1020F000002040F66A17B94200D100BF1846C1F36C
:10210000421401F01F06012707FA06F5012C01D140
:102110000C3004E0022C01D1103000E014301AB170
:1021200007682F43076002E00768AF430760F0BD10
:102130002DE9F04786B005460E460024A24600BFB2
:10214000A1460027B08900B100BF2F462C8A4CF66B
:10215000FF700440F08804432C82AC894EF6F310E3
:102160000440B08831890843718908430443AC8135
:10217000AC8A4FF6FF400440B0890443AC8201A80A
:10218000FFF7E6FA1F48874202D1DDF810A001E010
:10219000DDF80CA0A88900F4004040B10AEBCA00A9
:1021A00000EB0A1031684900B0FBF1F807E00AEBD8
:1021B000CA0000EB0A1031688900B0FBF1F8642016
:1021C000B8FBF0F004012009642101FB1089A88903
:1021D00000F4004040B1322000EBC900B0FBF1F048
:1021E00000F00700044308E0322000EB09106421EE
:1021F000B0FBF1F000F00F0004432C8106B0BDE805
:10220000F08700000038014001468888C0F30800CC
:102210007047C1F30802828070474FF41651016085
:1022200000218180C18001810C21418100218181B7
:102230007047000070B5044600261B4D1B4800780F
:1022400010B3802C1CDB1A4800782C5418480078F6
:10225000401C1749087017480078401E154908703F
:102260000846007800281CDC114800780A2818D19C
:10227000284600F021F8064600200C49087010E0BE
:1022800000200A4908700CE0802C0ADA092009496C
:1022900008700120064908700348047001200349B2
:1022A0000870304670BD0000AC0200200B0000201A
:1022B0000A0000200C00002030B501460C784B7855
:1022C000E018C4B202220BE0885C2044C4B203F0E0
:1022D0000105885C65F3DF1088545B10501CC2B2A6
:1022E000092AF1DB04F07F004D7A05F07F05A84252
:1022F00001D0002030BD0120FCE700BFFEE7000058
:1023000031B50024012269460248FEF747FEC4B2F7
:10231000204638BD9803002031B5002401226946CB
:102320000248FEF717FEC4B2204638BDC4020020A2
:1023300070B504460D4600262A4621460648FEF79B
:1023400009FEC6B2642E04DA0448007808B9FEF724
:102350004BFE304670BD0000B80200201400002083
:10236000014A024900F013B8B1230008A802002076
:1023700002E008C8121F08C1002AFAD1704770474E
:10238000002001E001C1121F002AFBD170472DE996
:10239000F04116460F460446002503E03946B04793
:1023A000641C6D1C20780028F8D12846BDE8F08117
:1023B00070B504460D46E0B2FFF726FB204670BD1F
:1023C000FEF77EFFFEF724FF04A0FFF7C9FF03E03E
:1023D000FFF7BAF8FFF7B1F8FAE70000496E697441
:1023E0002053797374656D20686173206265656E32
:1023F0002066696E69736865642E0D0A000000002E
:102400002024000800000020AC0200003205000873
:10241000B4250008AC020020C40500008023000899
:10242000012114088008182F097F09FD09780AF195
:102430000A670BDA0B490CB30C190D790DD40D2971
:102440000E780EC00E020F3C0F6F0F9B0FBF0FDBFD
:102450000FEF0FFB0FFF041AEF0C1ABF141A6F1CBB
:102460001C020FC0281C290ED4341810190DB30CEF
:10247000490CDA0B670BF10A780AFD58111A09604A
:102480001023087F07FF068006020687050E0598C1
:10249000042504B6034C03E60286022B02D601870C
:1024A000013F01FD12C31290126412401224121057
:1024B00032041A04081A24101A641812C312FD1ADE
:1024C0003F281CD6012B341810E6024C03B6032516
:1024D0000498040E05870502580564FF067F071A55
:1024E000FFFC095E0221125212A412F6102B4801C1
:1024F0009901EB013D028F02E10233038503D7030B
:1025000029047B04CD041E057005C2051406660669
:10251000B8060A075C07AE071831085108A308F58A
:102520000847099909EB093D0A8F0AE10A330B8430
:102530000BD60B280C7A0CCC0C1E0D700DC20D1492
:102540000E660EB70E090F5B0FAD661AAD081C09BB
:102550000FB7141C140EC2201C1E0DCC2C1C280CF2
:10256000D6381C330BE1441C3D0AEB501C4709F5DF
:102570005C1351081B08AE6C1C0A07B8781C1406C3
:10258000C2841C1E05CD901C2904D79C1C3303E17A
:10259000A81C3D02EBB41C4801F6C072522D01028A
:1025A0000304047009060708090204060884A24A05
:0425B00004691E415B
:0400000508000131BD
:00000001FF
