:020000040800F2
:10000000C85E002049010008D1200008491D0008F1
:10001000CD200008FD0B0008972F0008000000000D
:10002000000000000000000000000000A9260008F9
:1000300093140008000000000122000815280008A1
:100040006301000863010008630100086301000800
:1000500063010008630100086301000863010008F0
:1000600063010008630100086301000863010008E0
:1000700063010008630100086301000863010008D0
:1000800063010008630100086301000863010008C0
:1000900063010008630100086301000863010008B0
:1000A00063010008630100086301000863010008A0
:1000B0007D280008B92800086301000863010008D2
:1000C0006301000863010008630100086301000880
:1000D00063010008352C0008630100086301000873
:1000E0006301000863010008630100086301000860
:1000F0006301000863010008630100086301000850
:100100006301000863010008E1280008630100089A
:10011000630100086301000863010008630100082F
:100120006301000863010008CD11000863010008A5
:10013000DFF810D000F0BEFB00480047D9380008B7
:10014000AFF30080C85E002006488047064800479D
:10015000FEE7FEE7FEE7FEE7FEE7FEE7FEE7FEE777
:10016000FEE7FEE71D28000831010008F0B480EA30
:100170000102D40F4200B2EB410F02D20246084600
:1001800011464A0042D0C30DDDB2C1F3C752AD1AC9
:10019000202D35DAC1F3160141F4000204B15242B8
:1001A000C5F1200602FA06F12A411044B3EBD05FF4
:1001B00023D0C4B1012DA0EBC35009DCF0BC4FF03B
:1001C000004202EAC352DBB200F5000000F0CFBAF1
:1001D000400000F1807000EBC350A0F1807040EA55
:1001E000D170490009E0490841EAC071A0EBC35051
:1001F00000F50000400800EBC350F0BC00F0AEBAC0
:100200006142012202EB4101001BF6E7F0BC70479E
:1002100081F00041AAE780F00040A7E780EA0102F0
:1002200010B502F00043400022D04A001FD0010E5A
:1002300001EB1261C0F35600C2F3560240F4000015
:1002400042F40002A0FB022000047F39140400D015
:10025000401C50EA124001D44000491EC2B20C06B4
:1002600004EBD010401C4008802A02D003E000209C
:1002700010BD20F00100002900DA0020184310BD55
:100280002DE9FE4F804681EA0300C00F0C46009026
:1002900021F0004123F00045B8EB0200A94105D24E
:1002A0004046214690461C460B46024623F000403D
:1002B000104347D0270DC7F30A00C3F30A51029039
:1002C000401A019040286BDAC3F3130040F4801BFE
:1002D0000098924620B10023D2EB030A63EB0B0B8C
:1002E00001985946C0F14002504600F006FA064611
:1002F0000D4650465946019A00F01EFA10EB0800D0
:100300006141002487EA115284EAE7731A4340D01E
:10031000009A62B3019A012A4FEA075215DC001BCA
:1003200061EB02014FF0004202EA0752CDE90042C0
:10033000001C41F5801132462B4600F055FA03B0FF
:10034000BDE8F08F40462146F9E7001B61EB020152
:10035000001C41F5801300185B412018A2F500171E
:1003600047EB030140EAD570B6196D4111E06D0805
:100370004FEA360645EAC0754FEA0752001B61EBAB
:100380000201001C41F5801149084FEA30000019B4
:10039000514132462B4603B0BDE8F04F00F015BA8C
:1003A0000098012240000023D0EB020263EBE073CF
:1003B000009821464FEAE074B8EB000061EB0401BD
:1003C000E9E783F000435BE781F0004158E72DE95E
:1003D000FE4F81EA030404F0004421F00041009440
:1003E0004FF0000B23F0004350EA01045ED052EAC4
:1003F00003045BD0C3F30A54C1F30A552C44A4F29E
:10040000F3340194A0FB0254C1F3130141F48011B1
:10041000C3F3130343F4801301FB024400FB034EB8
:10042000840A970A44EA815447EA8357A4FB076881
:1004300002958D0A05FB07854FEA932C04FB0C54AB
:100440002705029D4FEA065847EA1637B5EB08051F
:100450006EEB070C870E920E47EA811742EA831271
:10046000A7FB0201B6EB0B0164EB00042B0D43EA82
:100470000C335E1844EB1C50DA465146E7FB020190
:10048000C5F313044FEA0B3343EA14534FEA043223
:10049000019C43EA0603A4F10C040294009CCDE9FC
:1004A00000B400F0A1F903B0BDE8F08F00200146D0
:1004B000F9E72DE9F04D81EA030404F0004B21F047
:1004C000004514464FF0000A23F0004150EA0502AF
:1004D00020D054EA01021DD0C5F30A570246C5F3E5
:1004E0001303C1F31300C1F30A5640F4801543F41B
:1004F0008013A7EB0608101BD64608F2FD3873EBF5
:10050000050002D308F1010801E092185B41B8F13F
:10051000000F03DA00200146BDE8F08D00204FF403
:100520008011064684460EE0171B73EB050705D3C2
:10053000121B63EB050306434CEA010C49084FEA22
:10054000300092185B4150EA0107EDD152EA0300F6
:1005500012D082EA040083EA0501084305D0101B8B
:10056000AB4106D20122002306E000224FF00043F7
:1005700002E06FF0010253101AEB06004CEB085139
:1005800010EB0A0041EB0B01BDE8F04D00F01DB986
:100590000EB5C10F80EAE0700844CA07002140F29E
:1005A00033438DE80E000A460B4600F01DF903B0F8
:1005B00000BD0EB540F2334102910021CDE900119A
:1005C0000A460B4600F010F903B000BD70B5C1F348
:1005D0000A5201F000450024C1F3130140F2FF3339
:1005E00041F480119A4201DA002070BD40F2334399
:1005F0009A42A2F2334203DC524200F08DF800E04E
:1006000090402C43F1D0404270BD000030B5041E34
:1006100071F1000404DB4FF00044404264EB01013F
:10062000141E73F1000405DB1C464FF000435242D8
:1006300063EB04038B4208BF824230BD30B5041E19
:1006400071F1000404DB4FF00044404264EB01010F
:10065000141E73F1000405DB1C464FF000435242A8
:1006600063EB0403994208BF904230BD30B50B469E
:10067000014600202022012409E021FA02F59D42D2
:1006800005D303FA02F5491B04FA02F52844151EA6
:10069000A2F10102F1DC30BD2DE9F05F054600203A
:1006A00092469B4688460646814640241BE02846E3
:1006B00041464746224600F02FF853465A46C01A94
:1006C000914110D311461846224600F016F82D1A13
:1006D00067EB01084F4622460120002100F00DF88B
:1006E00017EB00094E41201EA4F10104DFDC48464F
:1006F00031462A464346BDE8F09F202A04DB203AD3
:1007000000FA02F1002070479140C2F1200320FA64
:1007100003F3194390407047202A04DB203A21FA62
:1007200002F00021704721FA02F3D040C2F120020A
:100730009140084319467047202A06DBCB17203A20
:1007400041FA02F043EAE07306E041FA02F3D040D6
:10075000C2F1200291400843194670470029A8BF02
:100760007047401C490008BF20F00100704710B4DA
:10077000B0FA80FC00FA0CF050EA010404BF10BC8F
:10078000704749B1CCF1200421FA04F411FA0CF1BC
:1007900018BF012121430843A3EB0C01CB1D4FEAF5
:1007A00000614FEA102042BF002010BC704700EBF0
:1007B000C35010440029A4BF10BC7047401C49001E
:1007C00008BF20F0010010BC704710B5141E73F173
:1007D000000408DA401C41F1000192185B411A4301
:1007E00001D120F0010010BD2DE9F04D92469B464D
:1007F00011B1B1FA81F202E0B0FA80F220329046F3
:10080000FFF77BFF04460F4640EA0A0041EA0B016E
:1008100053465A46084313D0114653EA010019D0F3
:10082000C8F140025046FFF777FF05460E46504696
:1008300059464246FFF761FF084305D0012004E016
:1008400020463946BDE8F08D0020054346EAE076B3
:100850002C4337430A986305E40AA0EB0800002202
:10086000FD0A44EA47540A3002D500200146E9E770
:10087000010510196941DDE9084500196941BDE824
:10088000F04DA2E7C1F30A52C1F3130140F2FF3366
:1008900041F480119A4202DA00200146704740F28A
:1008A00033439A42A2F2334202DC5242FFF734BF92
:1008B000FFF723BF064C074D06E0E06840F0010358
:1008C00094E8070098471034AC42F6D3FFF734FCA5
:1008D000883A0008A83A000870B58C1810F8015B37
:1008E00015F0070301D110F8013B2A1106D110F8C9
:1008F000012B03E010F8016B01F8016B5B1EF9D1CD
:100900002B0705D40023521E0DD401F8013BFAE752
:1009100010F8013BCB1A921C03E013F8015B01F8BD
:10092000015B521EF9D5A142D8D3002070BD21B180
:10093000826842F00102826003E0826822F00102D4
:100940008260704721B1826842F48072826003E065
:10095000826822F480728260704721B1826842F41A
:100960008012826003E0826822F480128260704705
:10097000014600208A6802F004020AB1012000E06A
:1009800000207047014600208A6802F008020AB180
:10099000012000E00020704730B50246002000230F
:1009A00050680F4C20400D790C6844EA0524204320
:1009B000506090680B4C2040D1E902542C434D7993
:1009C00044EA450420439060D06A20F470000C7C17
:1009D000641EE4B2234340EA0350D06230BD0000FD
:1009E000FFFEF0FFFDF7F1FFF0B504460D460020D5
:1009F0000021092D11DDE068A5F10A0606EB460786
:100A0000072606FA07F18843A5F10A0606EB460613
:100A100003FA06F10843E0600CE0206905EB4507A6
:100A2000072606FA07F1884305EB450603FA06F1A7
:100A300008432061072A0FDA606B561E06EB860713
:100A40001F2606FA07F18843561E06EB860605FAAE
:100A500006F10843606322E00D2A0FDA206BD61FEF
:100A600006EB86071F2606FA07F18843D61F06EB1A
:100A7000860605FA06F10843206310E0E06AA2F159
:100A80000D0606EB86071F2606FA07F18843A2F13A
:100A90000D0606EB860605FA06F10843E062F0BD96
:100AA000816841F0080181607047816841F004016C
:100AB000816070472DE9F05F04464FF07E50454954
:100AC0000860C00148604FF07E508860424908606D
:100AD00042484860424888604FF07E504149086073
:100AE000C00148604FF07E5088603F4908603F4831
:100AF00048603F4888603F49206808600A4651685E
:100B0000344A5068FFF78AFB82463B4A9168324A72
:100B10009068FFF783FB83462F48406880F00049C8
:100B2000354841684846FFF779FB80465946FFF74C
:100B30006FFB07462F4801683846FFF717FB06464C
:100B40005146FFF713FB05462A4881682846FFF700
:100B50000DFB29490860274A5168224A5068FFF76F
:100B60005DFB8246244A91681F4A9068FFF756FB56
:100B700083461D48406880F000491F484168484648
:100B8000FFF74CFB80465946FFF742FB07461948E2
:100B900001683846FFF7EAFA06465146FFF7E6FADB
:100BA0000546144881682846FFF7E0FA12490860B4
:100BB0000846406888600846006848600D484068FC
:100BC0000C4988600846006848600B48006820604F
:100BD000BDE8F09FC8490020D449002035C1FEBFC0
:100BE0002A8C7D3FE0490020EC490020C70AFDBF68
:100BF000C81F7A3FF8490020044A002000BFFEE7E2
:100C000000200149087070472100002000200149A0
:100C1000087070472000002000B587B04FF40040F6
:100C200001F080FB0121480201F0B8FB01211020F6
:100C300001F0B4FB1020ADF8180000208DF81B0067
:100C400006A91E4800F0BCFF0020019001208DF88D
:100C5000080000208DF809004FF4002003900020C8
:100C6000049001208DF8140001A91548FFF794FEA7
:100C7000072301220E211248FFF7B6FE012110487A
:100C8000FFF760FE01210E48FFF767FE01210C48C7
:100C9000FFF74DFE0A48FFF703FF00BF0848FFF7C4
:100CA00071FE0028FAD10648FFF7FFFE00BF044896
:100CB000FFF75EFE0028FAD107B000BD0008014032
:100CC0000024014000B585B00121042001F066FB3D
:100CD0000121480701F042FB1020ADF8100003206D
:100CE0008DF8120000208DF8130004A90C4800F0C4
:100CF00067FF2C200090002001900290039069462D
:100D000000F03AFA0121002000F020FA0021084604
:100D100000F04CFA0121002000F004FA05B000BDFB
:100D20000008014000B58BB00121084601F006FB28
:100D3000114800F085FA11480090114801900020F8
:100D40000290012003900020049080200590400034
:100D500006908000079020200890C0010990002094
:100D60000A906946044800F030FB0121024800F077
:100D70005BFA0BB000BD0000080002404C240140AB
:100D80008802002003B58DB00121022001F0D6FABF
:100D90001A4800F055FA1A4802900D9803900E98E0
:100DA00005901020049000200690802007904000BD
:100DB00008908000099020200A9000020B900020EB
:100DC0000C9002A90D4800F000FB3A208DF80400B9
:100DD00000208DF805008DF8060001208DF8070031
:100DE00001A801F083F901220221044800F0E4FA8D
:100DF0000121024800F018FA0FB000BD3004024093
:100E00000874004008B50121102001F0C7FA4FF422
:100E10000050ADF8000003208DF8020010208DF87E
:100E2000030069460A4800F0CBFE0121042001F0CE
:100E3000B5FA8020ADF8000003208DF802002820CC
:100E40008DF803006946034800F0BAFE08BD0000B3
:100E5000001001400008014008B50121102001F0F8
:100E60009DFA2020ADF8000003208DF8020010202C
:100E70008DF803006946044800F0A2FE00222021FC
:100E8000014800F03AFF08BD0010014010B54FF4D2
:100E9000A06001F063F910BD10B501F09FFA4FF4A6
:100EA000803001F05DFB01F0B9FB0446012C24D138
:100EB000102000F06BFE022000F076FE002001F012
:100EC00043FB002001F07EFBA00201F06FFB4FF41A
:100ED000E011200401F088FB012001F07FFB00BF3E
:100EE000392001F00BFB0028FAD0022001F08AFB28
:100EF00000BF01F021FB0828FBD110BD7FB50546DE
:100F00000C460121084601F029FAADF80850ADF869
:100F100004400020ADF80A00ADF8060001A94FF02A
:100F2000804001F029FE01221146900701F011FED8
:100F30001C208DF8000000208DF8010003208DF8A2
:100F4000020001208DF80300684601F0CFF801216E
:100F5000880701F0ECFC7FBD7FB505460C460121FA
:100F6000022001F0FBF9ADF80850ADF80440002074
:100F7000ADF80A00ADF8060001A90F4801F0FCFD2C
:100F800020210D4801F0EEFD012211460A4801F032
:100F9000E0FD1D208DF8000001208DF801008DF886
:100FA00002008DF80300684601F0A0F80121024814
:100FB00001F0BDFC7FBD0000000400403EB50546C9
:100FC0000C460121042001F0C9F90C4801F0BCFCD9
:100FD000ADF80450ADF800400020ADF80600ADF8C3
:100FE00002006946054801F0C7FD2021034801F0D1
:100FF000B9FD0121014801F09AFC3EBD0008004006
:101000007FB505460C460121082001F0A7F9ADF88F
:101010000850ADF804400020ADF80A00ADF8060015
:1010200001A90E4801F0A8FD012211460B4801F06C
:1010300090FD32208DF8000000208DF80100032083
:101040008DF8020001208DF80300684601F04EF88B
:101050000121024801F06BFC7FBD0000000C004044
:1010600010B586B004460121880301F097F90121EB
:10107000042001F093F94FF40070ADF8140018202B
:101080008DF8170003208DF8160005A9224800F0FE
:1010900097FD4FF48060ADF8140004208DF8170020
:1010A00005A91D4800F08CFD01A801F004FF019482
:1010B0000020ADF80800ADF80A00ADF80C000C20D7
:1010C000ADF80E000020ADF8100001A9134801F0A2
:1010D0007DFE25208DF8000001208DF801008DF89F
:1010E00002008DF80300684601F000F8012240F28A
:1010F00025510A4801F045FE012240F227710748B8
:1011000001F03FFE0121054801F0F8FD00200449EF
:10111000087006B010BD0000000801400038014012
:101120002600002039B1084A1268012383401A437F
:10113000054B1A6006E0044A1268012383409A4373
:10114000014B1A60704700000074004041B1094A29
:1011500012684FF4805383401A43064B1A6007E02D
:10116000044A12684FF4805383409A43014B1A603B
:10117000704700000074004030B5002200230A4C84
:10118000226840F6FE748440A243D1E900452C4316
:101190008D682C43CD6844EA050303FA00F422432A
:1011A000014C226030BD00000074004008B50022F0
:1011B0000092054A009200F10802009B1A44009236
:1011C000009A116008BD00000074004010B50B4883
:1011D00000F0DCF880B13A2000F01F0201219140BC
:1011E000074A430942F8231000BF064800F00EF8F2
:1011F000054803C8FFF7C6FD10BD0000000200103F
:1012000080E200E0000100102800002000F0805182
:1012100011B10349086001E00249486070470000CD
:10122000040402400000024021B1026842F00102C1
:10123000026004E002684FF6FE731A4002607047D5
:1012400001684FF6FE7211400160002101604160AB
:101250008160C1604B49884208D14A4908394968D0
:1012600041F00F01474A083A51608AE0454914317C
:10127000884208D143490839496841F0F001414AA0
:10128000083A51607DE03F492831884208D13D4904
:101290000839496841F470613A4A083A516070E08F
:1012A00038493C31884208D136490839496841F407
:1012B0007041344A083A516063E032495031884203
:1012C00008D130490839496841F470212D4A083A5B
:1012D000516056E02B496431884208D129490839C8
:1012E000496841F47001274A083A516049E02549AC
:1012F0007831884208D123490839496841F0706142
:10130000204A083A51603CE01F49884206D1011F3B
:10131000096841F00F01021F116032E01A491431CF
:10132000884208D11849091F096841F0F001164A9E
:10133000121F116025E014492831884208D1124952
:10134000091F096841F470610F4A121F116018E00B
:101350000D493C31884208D10B49091F096841F405
:101360007041094A121F11600BE007495031884251
:1013700007D10549091F096841F47021024A121F6B
:101380001160704708000240080402400146002036
:10139000002201F0805313B1054B1A6801E0054BA0
:1013A0001A6802EA01030BB1012000E00020704737
:1013B00000040240000002401AB103680B430360BE
:1013C00002E003688B430360704710B50022026897
:1013D00047F6F0739A430C6A8B6823430C692343E6
:1013E0004C6923438C692343CC6923434C6A2343D0
:1013F0008C6A23431A430260CB6843600B688360A6
:101400004B68C36010BD30B50346002016E0B3F949
:1014100000509C68645D0C541C88641C24B21C80C1
:10142000B3F90040B3F90450AC4201DB00241C8046
:10143000441C20B2DC88641E24B2DC80B3F9064070
:10144000002C01DD9042E2DB30BD30B503460020C8
:1014500018E0B3F900509C6834F8154021F81040AA
:101460001C88641C24B21C80B3F90040B3F90450FA
:10147000AC4201DB00241C80441C20B2DC88641ECA
:1014800024B2DC80B3F90640002C01DD9042E0DBA1
:1014900030BD7047F8B513480078401C11490870FA
:1014A0000846007801281CDB684601F0D3F8A8B193
:1014B000BDF80000FFF77DF8064600220A4BFEF754
:1014C00086FF04460D46094A094B1B8802EBC302FE
:1014D00030C207480088401C0549088000200149A7
:1014E0000870F8BD0D0000200000F03FC802002089
:1014F0000800002010B504460848006810B1012813
:1015000005D100E007E0204600F016F803E004A053
:1015100001F074FD00BF00BF10BD000014000020EA
:101520004552524F523AC2CBB2A8C6F7D1A1D4F11C
:10153000B4EDCEF3000000002DE9F04F89B0044671
:10154000D4E90001CDE906010225012602274FF06A
:101550000108A9464FF0010AAB4601200590DDE9DC
:101560000601CDE902012348234933462A46CDE945
:1015700000102249224800F0E9FBCDE90601DDE92F
:101580000601CDE902011F481F4943463A46CDE90D
:1015900000101E491E4800F0D9FBCDE90601DDE927
:1015A0000601CDE902011B481B4953464A46CDE9D5
:1015B00000101A491A4800F0C9FBCDE90601DDE91F
:1015C0000601CDE9020117481749CDE900105A4636
:1015D00016491748059B00F0B9FBCDE9060106A89E
:1015E000FFF768FADDE90601C4E9000109B0BDE8CA
:1015F000F08F0000A8410020484100204039000839
:101600002039000868420020084200208039000884
:101610006039000828430020C8420020C039000873
:10162000A0390008A846002088430020403A00085E
:10163000E83900082DE9F0478146CA46002400BF7A
:1016400013E00D4800EBC4000B49D0E90053601CC7
:1016500001EBC0002A46D0E900713846FEF7B1FE22
:10166000064A02EBC40203C2641CA9F10100A042B5
:10167000E7DC5046BDE8F087104A0020905100207A
:101680002DE9FC5F04464FF00009CA46012C06DC38
:1016900000211E481E4AC2E90010BDE8FC9F4FF021
:1016A000000A13E04846FEF773FF0546194800EBB1
:1016B000CA00D0E900733A462846FEF7E1FDCDE9BD
:1016C0000001FEF783FF81460AF1010AA245E9DB2A
:1016D000B9F1000F04DC00200C490D4A03C2DCE71D
:1016E00099FBF4FB5846FEF753FF05460A4A0B4B9D
:1016F000FEF76DFE07463A460B4600200849FEF706
:10170000D8FE034A03C200BFC7E700000000F0BFD5
:101710001800002090510020FCA9F1D24D62603FDA
:1017200000004E402DE9F05F05460E464FF00009DF
:10173000002400BF39E0214800EBC400D0E9007369
:101740003A4628463146FEF761FF2DD8601E1B49F8
:1017500001EBC000D0E90073084600EBC4003A4634
:10176000D0E900A15046FEF769FF1DD21349601C65
:1017700001EBC000D0E90073084600EBC4003A4614
:10178000D0E900A15046FEF759FF0DD2B9F1F00F94
:1017900000DB0EE02046FEF7FBFE4A4609F1010998
:1017A000074B03EBC20203C2641C40F2CF708442B9
:1017B000C1DB00BF4846BDE8F09F0000C802002022
:1017C000104A00202DE9F047134830C800BF4FF001
:1017D000000A00BF10E0104800EBCA0022462B466A
:1017E000D0E900814046FEF729FF03D20A4800EB0A
:1017F000CA0030C80AF1010ABAF5FA6FEBDB074AF2
:10180000074B20462946FEF7E2FD06460F463046C6
:101810003946BDE8F0870000C80200200AD7A3704F
:101820003D0AEF3F10B503480CC803A001F0E6FBEA
:1018300010BD0000180000205B5B322C256C665D3B
:101840005D0D0A002DE9F04100BF00240025FFF7DF
:10185000B9FF06460F4630463946FFF763FF044698
:101860002046FFF7E7FE05462846FFF709FFFFF78A
:10187000D9FFBDE8F081000010B5FFF7C3FA0120E1
:101880000149087010BD00000A00002010B5802139
:10189000124800F020FA01280AD1114800780028E7
:1018A00019D101200E4908700EA001F0A7FB12E02B
:1018B00080210A4800F00FFA50B909480078012841
:1018C00009D10020064908700DA001F097FB02E045
:1018D00010A001F093FB0248007810BD0008014001
:1018E0000B0000204552524F52A3BAD0C4B5E7B501
:1018F000BCC1AAC3BBBDD3C9CFC5B60A0000000096
:10190000494E464F3AB5BCC1AAD2D1C1ACBDD30AEB
:10191000000000005741524E494E473AB5BCC1AA9B
:10192000D2FDBDC5D7B4CCACBCECB2E2D2ECB3A313
:101930000A00000010B1012808D103E00021054A87
:10194000117004E00121034A117000E000BF00BFE4
:10195000704700000A00002001480078704700002E
:101960000A00002010B51448007880B913480078A8
:1019700001281ED100201149087000224FF40051A7
:101980000F4800F0BAF90FA001F038FB11E00A4847
:10199000007801280DD10948007850B90120074985
:1019A000087001224103064800F0A7F90BA001F0DE
:1019B00025FB0248007810BD0A0000200C00002022
:1019C00000100140494E464FA3BAD0C4B5E7D0C578
:1019D000BAC5D5B9CABEBFAACABC0A00494E464F4D
:1019E000A3BAD0C4B5E7D0C5BAC5D5B9CABECDA3D0
:1019F000D6B90A0010B5FFF749FF012800D110BD84
:101A0000FFF7B0FF012800D1F9E7FFF743FD1A49BE
:101A10000988491E194A02EBC100FFF76BFD00F06F
:101A200037F815480088B0F5FA6F23DBFFF70AFF97
:101A30000020114908801248006810B1012818D10F
:101A40000BE00F4801680FA001F0D8FA0C480068BD
:101A5000C0F101000A4908600BE00948016809A0CB
:101A600001F0CCFA06480068C0F1010004490860A2
:101A700000BF00BF00BFC2E708000020C80200206E
:101A8000100000205B5B332C25645D5D0D0A0000B7
:101A900070B50C480078401C0A4908700846007868
:101AA00001280EDB08480088401E084901EBC000F1
:101AB000D0E90043224606A001F0A0FA0020014927
:101AC000087070BD0E00002008000020C802002031
:101AD000256C660A0000000070B50346002016E081
:101AE0000C5CB3F902609D68AC555C88641C24B240
:101AF0005C80B3F90240B3F90450AC4201DB00242E
:101B00005C80441C20B2DC88641C24B2DC80B3F905
:101B10000640B3F90450AC4201DA9042E0DB70BDFC
:101B200070B50346002018E031F81040B3F90260A8
:101B30009D6825F816405C88641C24B25C80B3F96B
:101B40000240B3F90450AC4201DB00245C80441C29
:101B500020B2DC88641C24B2DC80B3F90640B3F9FF
:101B60000450AC4201DA9042DEDB70BD10B50120BA
:101B700004490870012240F22771034801F001F97D
:101B800010BD00002600002000380140054909680A
:101B900021F01001034A11601146096801431160E8
:101BA000704700000020024001460020034A1068F0
:101BB00000F0380008431060704700000020024029
:101BC0002DE9F041024600250026002000230024D4
:101BD000002791F803C00CF00F0591F803C00CF03A
:101BE000100CBCF1000F03D091F802C04CEA0505BF
:101BF00091F800C0BCF1000F31D0146800202BE038
:101C00004FF0010C0CFA00F3B1F800C00CEA030627
:101C10009E4220D183004FF00F0C0CFA03F7BC4317
:101C200005FA03FC4CEA040491F803C0BCF1280F48
:101C300006D14FF0010C0CFA00FCC2F814C00AE007
:101C400091F803C0BCF1480F05D14FF0010C0CFA1C
:101C500000FCC2F810C0401C0828D1D31460B1F8B1
:101C600000C0BCF1FF0F34DD546800202EE000F10D
:101C7000080C4FF0010808FA0CF3B1F800C00CEAA8
:101C800003069E4221D183004FF00F0C0CFA03F79C
:101C9000BC4305FA03FC4CEA040491F803C0BCF110
:101CA000280F05D100F1080C08FA0CF8C2F81480CE
:101CB00091F803C0BCF1480F07D100F1080C4FF0B8
:101CC000010808FA0CF8C2F81080401C0828CED38E
:101CD0005460BDE8F0810246002093680B400BB1D0
:101CE000012000E00020704702460020D3680B402E
:101CF0000BB1012000E0002070470AB1016100E053
:101D000041617047014800787047000021000020C1
:101D1000014800787047000020000020004870470C
:101D2000F80000200048704730000020004870474D
:101D3000C001002003490A6802604A6842600989BC
:101D400001817047BC02002000BFFEE72DE9FF4F74
:101D50008BB09246DDE9189BDDE91A780AF101059E
:101D6000002483E004FB05F009EBC002C2E900781F
:101D700004FB05F009EBC00103C9CDE9080104FB30
:101D800005F00B9901EBC00003C8CDE90601DDE9C0
:101D90000823FEF71CFB07468846012636E004FBB5
:101DA00005600BEBC00003C8CDE9020104FB05612F
:101DB0000C9800EBC10003C8CDE90001DDE9022366
:101DC000FEF705FBCDE9060104FB056009EBC00148
:101DD00003C9CDE9020104FB05610B9800EBC100CA
:101DE00003C8CDE90001DDE90223FEF7F0FACDE9F1
:101DF0000401DDE90623FEF7E4FA3A464346CDE95D
:101E00000801FEF73DFA07468846761C5645C6DDB2
:101E1000564616E004FB0560401E09EBC00103C9ED
:101E200004FB056209EBC20203C204FB0560401E0D
:101E30000BEBC00103C904FB05620BEBC20203C23A
:101E4000761E022EE6DA04FB05F009EBC00006C898
:101E500004FB05F0401C09EBC00006C004FB05F0C4
:101E6000401C0BEBC000C0E90078641C0E98844253
:101E7000FFF678AF384641460FB0BDE8F08F00005E
:101E800010B540F2CF21C720FFF766F8FEF7C4FE79
:101E9000FEF748FF64220249024800F0BDF810BD79
:101EA000FC590020F059002010B5FFF73BFF08490E
:101EB000086064204860FEF705FF40F2CF2140F241
:101EC0001F30FFF77BF8024803C8FEF75BFF10BD29
:101ED0002800002010B500F0A1FC00F04EF800F042
:101EE00013F84FF4E13000F0AAF800F089F800F0A0
:101EF00007F800F051F8FFF7D7FFFFF7C1FF10BD5B
:101F000010B5FEF7A9FF10BD10B5FEF7BFFF10BD5D
:101F100000210C4A117051709170002005E00022E0
:101F20000849C91C0A54411C08B20728F7DB0021E4
:101F3000044A5172044A1170044A1170044A117023
:101F400070470000BC0200200200002003000020B7
:101F500004000020704730B50B4600240480448004
:101F60008280C4808360002104E0002485686C5472
:101F70004C1C21B29142F8DB30BD10B5FEF78CFF4E
:101F800010BD704710B5FFF7C3FFFFF7E3FFFFF782
:101F9000F8FFFFF771FC10BD30B5164800684FF42C
:101FA0007A72B0FBF2F1B1F1807F01D301201DE024
:101FB00021F07F40401E4FF0E022506150170F2269
:101FC000002807DA13071D0E0B4B00F00F04241F27
:101FD0001D5503E013071C0E084B1C5400BF0020C6
:101FE0004FF0E022906107201061002008B100BF8F
:101FF000FEE730BDA402002018ED00E000E400E0A0
:1020000010B5472140F2E730FEF778FF472140F254
:10201000E730FEF7F5FF10BD30B50B460024048015
:1020200044808280C4808360002105E000248568AC
:1020300025F811404C1C21B29142F7DB30BD10B5A0
:10204000044600F005F82046FFF70AF810BD00002E
:1020500010B5002406E00020094908550949085533
:10206000601C04B2642CF6DB642205490648FFF7C5
:1020700072FF642203490548FFF76DFF10BD0000A1
:10208000285900208C590020105900201C5900208C
:1020900070B504460B480088401C0A490880084671
:1020A0000088A0420DDB0020088020210648FFF7B1
:1020B0001BFEC0F10100C5B22A4620210248FFF7ED
:1020C0001CFE70BD000000200010014000BFFEE7B4
:1020D0007047000000F01F0201219140024A4309AD
:1020E00042F823107047000080E200E070B5002144
:1020F00000230F22C47804B3154C246804F4E06470
:10210000C4F5E064210AC1F10403CA40447804FA2A
:1021100003F184781440214309010E4C0678A1553F
:10212000047804F01F050124AC4005786D11AD0062
:1021300005F1E025C5F8004109E0047804F01F0529
:102140000124AC40044D0678761145F8264070BD58
:102150000CED00E000E400E080E100E00249014312
:10216000024A1160704700000000FA050CED00E023
:102170001CB50446207818B9FFF7D4FD00900CE098
:102180002078012803D1FFF7D1FD009005E02078E9
:10219000022802D1FFF7C2FD009064200190DDE922
:1021A000000100F0BBFA00201CBD70B504460025FC
:1021B0002078802803DA0125204600F002F828461E
:1021C00070BD10B50378002208210DE05406220EE0
:1021D000445C42EAD412445C44F080044454445CBD
:1021E0001C44E3B24C1EE1B20129EFDC42F0800452
:1021F000447044781C44E3B243F08004447210BD40
:10220000704710B5FFF77EFD08B1FEF7F9FC10BD71
:1022100038B5FFF77DFD00283AD00121684600F06F
:1022200035FA00282DD09DF80000372804D0382832
:102230000ED039281FD11BE016480068C0F10100FC
:10224000144908600846016813A000F0D7FE13E0A7
:10225000FFF782FBC0F10100C4B22046FFF76AFB22
:10226000FFF77AFB0446214612A000F0C7FE03E008
:10227000FFF7D8FA00E000BF00BF9DF8000000F0B3
:1022800027F8FFF7B7FBFA20FFF702FFFEF7BEFCC7
:1022900038BD0000140000204368616E676520456A
:1022A00043475F46696C7465725F466C61673A25A7
:1022B000640A00004368616E6765204543475F53C9
:1022C00074617274496E666F3A25630A00000000FB
:1022D00030B587B0044617E001A8FFF72BFD01A831
:1022E00007C804AB07C39DF8100071280AD10DF18F
:1022F0001300FFF73DFF05462A468021712000F0BC
:10230000D4F900E000BF00BF204600F0E1FD002846
:10231000E2D107B030BD0146C88808B90120704736
:102320000020FCE701460020034A506820F44040AA
:1023300008435060704700000010024029B1064A6F
:1023400052690243044B5A6104E0034A52698243D2
:10235000014B5A61704700000010024029B1064A43
:10236000D2690243044BDA6104E0034AD269824332
:10237000014BDA61704700000010024029B1064AA3
:1023800012690243044B1A6104E0034A1269824352
:10239000014B1A61704700000010024029B1064A43
:1023A00092690243044B9A6104E0034A92698243B2
:1023B000014B9A61704700000010024029B1064AA3
:1023C000D2680243044BDA6004E0034AD2688243D5
:1023D000014BDA6070470000001002400F480068AF
:1023E00040F001000D490860084640680C4908406B
:1023F0000A494860084600680A49084007490860D9
:102400000846006820F4802008600846406820F4F0
:10241000FE0048604FF41F008860704700100240C3
:102420000000FFF8FFFFF6FE30B500210022002477
:1024300000232D4D6D6805F00C0121B1042905D054
:10244000082923D105E0294D056022E0274D0560CC
:102450001FE0254D6D6805F47012234D6D6805F47D
:102460008034022505EB92421CB9214D554305608D
:102470000BE01D4D6D6805F400351DB11C4D554335
:10248000056002E0194D5543056002E0174D0560F7
:1024900000BF00BF144D6D6805F0F0010909154D2E
:1024A0006B5C0568DD4045600F4D6D6805F4E061CB
:1024B000090A104D6B5C4568DD4085600A4D6D680A
:1024C00005F46051C90A0B4D6B5C4568DD40C56081
:1024D000054D6D6805F44041890B074D6B5CC5687F
:1024E000B5FBF3F5056130BD0010024000127A0023
:1024F00000093D008A0200209A02002010B5014622
:102500000022002300204A11012A02D1094C23682D
:1025100006E0022A02D1074C236A01E0054C636AF7
:1025200001F01F02012494401C400CB1012000E086
:10253000002010BD001002400248406800F00C006E
:10254000704700000010024001460020034A506816
:1025500020F0F00008435060704700000010024077
:102560001149096821F480310F4A11601146096848
:1025700021F480211160B0F5803F03D0B0F5802FA9
:102580000ED106E00849096841F48031064A11601D
:1025900007E00549096841F4A021034A116000E001
:1025A00000BF00BF7047000000100240014600203D
:1025B000034A506820F4E060084350607047000010
:1025C0000010024001460020034A506820F4605089
:1025D00040EAC1005060704700100240014908669F
:1025E000704700000000424202460020044B586839
:1025F00020F47C1042EA01031843014B58607047F5
:102600000010024001460020034A506820F00300F9
:1026100008435060704700000010024038B50020A9
:1026200000900024002500BF3120FFF767FF05461A
:102630000098401C00900098B0F5A06F01D0002DCC
:10264000F2D03120FFF75AFF08B1012400E0002446
:10265000204638BD70B504460025012221460348B6
:10266000FEF7F3FEC5B2284670BD0000F059002009
:1026700070B504460025012221460348FEF7C3FE3B
:10268000C5B2284670BD00001059002070B5044640
:102690000D4600262A4621460248FEF7B4FEC6B281
:1026A000304670BD1C5900207047FEB504460E46EA
:1026B000154601208DF8000004208DF802008DF8E9
:1026C00003408DF804608DF8055000218DF8061048
:1026D0008DF807108DF80810684600F011F8FEBD5F
:1026E00010B50446E1B2054800F0E1FB00BF40210F
:1026F000024800F00FFB0028F9D010BD003801405F
:1027000070B5044600252046FFF74FFD0546002D15
:1027100003DD0A21204600F059FC70BD03B50248D4
:10272000DDE9001206C00CBD2800002010B500F045
:1027300001F810BD0CB500200190009033480068EE
:1027400040F480303149086000BF3048006800F430
:10275000003000900198401C0190009818B9019831
:10276000B0F5A06FF1D12948006800F4003010B135
:102770000120009001E0002000900098012843D142
:102780002348006840F010002149086008460068AE
:1027900020F0030008600846006840F0020008606E
:1027A0001A48406819494860084640684860084629
:1027B000406840F4806048600846406820F47C101F
:1027C00048600846406840F4E810486008460068E1
:1027D00040F08070086000BF0C48006800F0007096
:1027E0000028F9D00948406820F0030007494860F4
:1027F0000846406840F00200486000BF0348406857
:1028000000F00C000828F9D10CBD000000100240B7
:102810000020024010B500F001FA10BD10B51348B9
:10282000006840F0010011490860084640681049FE
:1028300008400E494860084600680E4908400B49A8
:1028400008600846006820F4802008600846406858
:1028500020F4FE0048604FF41F008860FFF766FF19
:102860004FF000600449086010BD000000100240F5
:102870000000FFF8FFFFF6FE08ED00E010B50121B3
:10288000880700F055F9012803D10121800700F0E5
:102890004BF807480088401C054908800846008816
:1028A000022804DB0020088001200249087010BDC6
:1028B000220000202000002010B50121064800F071
:1028C00037F918B10121044800F02EF803480088B8
:1028D00000F064FB10BD00000004004088020020EE
:1028E00010B501210D4800F023F9012803D1012181
:1028F0000A4800F019F80A480088401C00B208494C
:1029000008800846B0F90000B0F57A7F04DB0020AB
:10291000088001200349087010BD0000000C004031
:102920002400002021000020CA430282704721B108
:10293000028842F00102028004E002884FF6FE7332
:102940001A4002807047000010B50446684884426F
:1029500008D10121C014FFF731FD0021E014FFF779
:102960002DFDC4E0B4F1804F08D101210846FFF7E6
:1029700005FD00210120FFF701FDB8E05D4884421C
:1029800008D101210220FFF7F9FC00210220FFF706
:10299000F5FCACE05848844208D101210420FFF73F
:1029A000EDFC00210420FFF7E9FCA0E0534884423D
:1029B00008D101210820FFF7E1FC00210820FFF7E2
:1029C000DDFC94E04E48844208D101211020FFF73D
:1029D000D5FC00211020FFF7D1FC88E04948844253
:1029E00008D101212020FFF7C9FC00212020FFF79A
:1029F000C5FC7CE04448844208D101214014FFF723
:102A0000DDFC00216014FFF7D9FC70E03F488442F0
:102A100009D10121C804FFF7D1FC00214FF40020A7
:102A2000FFF7CCFC63E03A48844209D10121080554
:102A3000FFF7C4FC00214FF48010FFF7BFFC56E005
:102A40003448844209D101214805FFF7B7FC002131
:102A50004FF40010FFF7B2FC49E02F48844208D140
:102A600001214020FFF78AFC00214020FFF786FC6F
:102A70003DE02A48844208D101218020FFF77EFCF6
:102A800000218020FFF77AFC31E02548844208D1FC
:102A900001218015FFF772FC0021A015FFF76EFCE5
:102AA00025E02048844209D101210804FFF786FC73
:102AB00000214FF48030FFF781FC18E01A4884426F
:102AC00009D101214804FFF779FC00214FF40030BF
:102AD000FFF774FC0BE01548844208D101218804FB
:102AE000FFF76CFC00214FF48020FFF767FC10BD5E
:102AF000002C01400004004000080040000C004091
:102B0000001000400014004000340140004C01401F
:102B1000005001400054014000180040001C0040DB
:102B200000200040004001400044014000480140B6
:102B300030B50246002000230024158A05EA01036F
:102B4000958905EA010413B10CB1012000E00020D1
:102B500030BD1AB183890B43838102E083898B43A3
:102B60008381704782884FF68F731A4082808288F3
:102B70000A43828070470000002202881D4B984261
:102B80000ED01D4B98420BD0B0F1804F08D01B4B9C
:102B9000984205D01A4B984202D01A4B984204D161
:102BA0004FF68F731A404B881A43174B984207D041
:102BB000164B984204D04FF6FF431A40CB881A4375
:102BC00002808B8883850B8803850A4B98420BD043
:102BD000094B984208D00E4B984205D00D4B9842B5
:102BE00002D00D4B984201D10B7A038601238382D8
:102BF00070470000002C01400034014000040040F8
:102C000000080040000C004000100040001400408C
:102C10000040014000440140004801400448006871
:102C200020B103480068401E014908607047000059
:102C3000A002002008B50020009040F22551204855
:102C400000F075F858B12520FFF744FA1C4800F051
:102C500029F9C0B200909DF8000000F0ABF90821FE
:102C6000174800F057F8012806D10821144800F051
:102C70002DF8134800F016F940F22771104800F0C3
:102C800056F8E0B140F227710D4800F028F82520F1
:102C9000FFF720FA6846FFF7EBFC9DF800100848A4
:102CA00000F005F90748FFF736FB40B10020064960
:102CB0000870002240F22771014800F062F808BD58
:102CC00000380140105900202600002001F4007255
:102CD000B2F5007F00D100BFCA430280704710B533
:102CE0000022002340F66A14A14200D100BF0A125C
:102CF00001249440A3B2DC43048010BD21B1828939
:102D000042F40052828104E082894DF6FF731A403A
:102D10008281704702460020B1F5007F00D100BFDC
:102D200013880B400BB1012000E00020704770B504
:102D30000246002400230025002040F66A16B14216
:102D400000D100BFC1F3421501F01F03012606FAAE
:102D500003F3012D02D19689334006E0022D02D102
:102D6000168A334001E0968A33400C12012606FA97
:102D700004F41688344013B10CB1012000E00020A7
:102D800070BDF0B50346002400260025002040F663
:102D90006A17B94200D100BF1846C1F3421401F0CE
:102DA0001F06012707FA06F5012C01D10C3004E0BB
:102DB000022C01D1103000E014301AB107682F4303
:102DC000076002E00768AF430760F0BD2DE9F047F8
:102DD00086B005460E460024A24600BFA146002745
:102DE000B08900B100BF2F462C8A4CF6FF7004401A
:102DF000F08804432C82AC894EF6F3100440B0886E
:102E000031890843718908430443AC81AC8A4FF689
:102E1000FF400440B0890443AC8201A8FFF704FBE3
:102E20001F48874202D1DDF810A001E0DDF80CA0B8
:102E3000A88900F4004040B10AEBCA0000EB0A1078
:102E400031684900B0FBF1F807E00AEBCA0000EB7B
:102E50000A1031688900B0FBF1F86420B8FBF0F08B
:102E600004012009642101FB1089A88900F40040B5
:102E700040B1322000EBC900B0FBF1F000F00700D8
:102E8000044308E0322000EB09106421B0FBF1F0AC
:102E900000F00F0004432C8106B0BDE8F08700006D
:102EA0000038014001468888C0F308007047C1F32C
:102EB0000802828070474FF4165101600021818022
:102EC000C18001810C214181002181817047000076
:102ED00070B5044600261B4D1B48007810B3802CAB
:102EE0001CDB1A4800782C5418480078401C1749FD
:102EF000087017480078401E154908700846007889
:102F000000281CDC114800780A2818D1284600F057
:102F100021F8064600200C49087010E000200A49FC
:102F200008700CE0802C0ADA092009490870012099
:102F300006490870034804700120034908703046B0
:102F400070BD0000BC020020030000200200002031
:102F50000400002030B501460C784B78E018C4B26C
:102F600002220BE0885C2044C4B203F00105885CB7
:102F700065F3DF1088545B10501CC2B2092AF1DBE4
:102F800004F07F004D7A05F07F05A84201D00020B3
:102F900030BD0120FCE700BFFEE7000031B5002492
:102FA000012269460248FEF7BBFDC4B2204638BD87
:102FB000F059002031B50024012269460248FEF78D
:102FC0008BFDC4B2204638BD1C59002070B50446A4
:102FD0000D4600262A4621460648FEF77DFDC6B26C
:102FE000642E04DA0448007808B9FEF7BFFD3046C5
:102FF00070BD000010590020260000200FB4054BC2
:1030000010B503A9044A029800F0DAF810BC5DF884
:1030100014FB0000C7380008B802002002E008C80E
:10302000121F08C1002AFAD170477047002001E042
:1030300001C1121F002AFBD1704700002DE9FF5F7C
:1030400082B00021DDE90430020DDDF840B0034319
:1030500018D044F61050A2F2FF32424315141198D2
:1030600001281FD0A5EB0B00401C5FEA000A4FF0BF
:1030700000064E4FDFF83891B046504615D5CAF1DC
:10308000000413E0119801244AA3012801D16FEA3A
:103090000B010298119AC0E90031C0E9024206B062
:1030A000BDE8F09FCBF10000DFE704460021404A75
:1030B000491842EB0450CDE9001012E0E00707D0B8
:1030C00032463B4640464946FDF781F980468946EF
:1030D00032463B4610461946FDF779F906460F463B
:1030E0006410002CEAD1DDE90401DDE90023BAF126
:1030F000000F06DAFDF76BF942464B46FDF767F91C
:1031000005E0FDF7D6F942464B46FDF7D2F90446F5
:103110000E460022284BFDF791FA03D84FF0FF30FE
:10312000014607E00022254B20463146FDF7A8F86E
:10313000FDF7A8FB102409E0002C0ADB0A2200237B
:10314000FDF7AAFA039B30321A55641E50EA0102B9
:10315000F2D1641C039AC4F111031444119A012A98
:1031600003D0012208430DD10AE0084304D0002017
:103170004FF0110B119072E7A3EB0B056D1E0DE0E4
:103180005B4504DD4FF0000205F1010504E003DAC0
:103190004FF00002A5F10105002AECD00298119928
:1031A000C0E90231C0E9004579E7000000001440A1
:1031B0000000F03F300000000000F0430000E03F5E
:1031C0002DE9FF4F95B09A46884606460025EEE168
:1031D000252877D100242746F94A0121039400E0ED
:1031E000044316F8013F203B01FA03F01042F7D1E7
:1031F00030782A2811D06FF02F033078A0F13002F8
:10320000092A16D8039A44F0020402EB820203EB67
:1032100042021044761C0390EFE758F8042B039207
:10322000002A03DA504244F40054039044F00204AC
:10323000761C30782E2816D116F8010F44F00404BD
:103240002A280DD06FF02F023078A0F13003092B1F
:1032500009D807EB870302EB4303C718761CF3E793
:1032600058F8047B761C30786C280FD006DC4C288C
:1032700017D068280DD06A2814D104E0742810D023
:103280007A280FD10DE044F400140AE044F48014CD
:1032900001E044F440147278824202D104F58014B3
:1032A000761C761C307866280BD013DC582877D033
:1032B00009DC002875D04528F6D04628F4D04728E8
:1032C0001AD193E118E0632835D0642879D06528B5
:1032D00012D18BE1702873D008DC6728F1D06928FF
:1032E0006FD06E280DD06F2806D1ACE073282CD09B
:1032F000752874D0782853D05246179990476D1C82
:1033000054E1C4F30250022809D003280DD0D8F8A4
:10331000001004280DD00D6008F1040846E1D8F82B
:103320000010EA17C1E90052F6E7D8F800100D8046
:10333000F2E70D70F0E718F8041B8DF8001000207C
:103340008DF80100EB46012003E058F804BB4FF074
:10335000FF3061074FF0000102D40DE009F10101D7
:103360008946B9420FDA8145F8DB1BF809100029BC
:10337000F4D108E009F1010189468142FADB1BF82A
:1033800009100029F6D103985346A0EB09072146FE
:103390003846179A00F080FA284400EB090507E048
:1033A00044E008E10DE01BF8010B524617999047E5
:1033B000B9F10109F7D2534621463846179AF2E08F
:1033C00039E00A21C4F302524FF0000B0091022AA7
:1033D00006D058F8040BC117032A09D00AE023E0ED
:1033E00008F1070020F00702F2E80201904605E02C
:1033F00000B2C117042A01D140B2C117002906DA70
:103400000A460021404261EB02012D2202E0220522
:1034100004D52B228DF80420012203E0E20701D01D
:103420002022F7E7914657E00A2100E010214FF0F3
:10343000000B00910BE010214FF0000B44F004044E
:103440000827009103E008204FF0000B0090C4F320
:103450000252022A05D058F8040B0021032A08D092
:1034600008E008F1070020F00702F2E802019046A8
:1034700003E080B2042A00D1C0B24FF00009220755
:103480002AD53278702A07D0DDF800C08CF0100CF5
:103490005CEA0B0C05D00EE040228DF804200122DE
:1034A00008E050EA010306D030238DF804308DF88F
:1034B000052002229146009B83F0080353EA0B0388
:1034C0000AD150EA010201D1620705D530228DF8F8
:1034D00004204FF001097F1E3278582A04D039A207
:1034E0000C920CAA02920BE03BA2F9E75B46009A11
:1034F000FDF7D2F80C9B9B5C029A521E029213704D
:1035000050EA0102F2D1029804A9081A00F1200B36
:10351000600702D524F4803400E001275F4502DD16
:10352000A7EB0B0000E0002000EB0B0100900398DC
:103530004944401A0390E00306D453462146179AA3
:10354000039800F0A9F90544002706E001A85246B7
:10355000C05D179990476D1C7F1C4F45F6DBE0035B
:103560000CD553462146179A039800F095F9054467
:1035700004E030205246179990476D1C0099481E70
:1035800000900029F5DC08E0029802995246007884
:10359000491C0291179990476D1CBBF10001ABF1DA
:1035A000010BF1DC5BE100F065F90544761C307835
:1035B00000287FF40DAE19B02846BDE8F08F00005A
:1035C00009280100303132333435363738396162F9
:1035D00063646566000000003031323334353637BD
:1035E000383941424344454600000000600700D49A
:1035F000062708F1070020F00700F0E802238046C4
:1036000003F0004C5FEA0C0001D097A009E0200510
:1036100001D596A005E0E00701D095A001E0AFF24A
:103620004C001390307823F0004365280CD006DC62
:10363000452809D046281DD047287FD13BE0662881
:1036400018D067287AD136E00021112F01DB112034
:1036500000E0781CCDE9000104A90CA8FFF7EEFCFE
:10366000DDE90D010C9A4FF0000B07F101091092F2
:1036700000914EE04FF000400097CDE9011004A901
:103680000CA8FFF7DBFCDDE90D020C9B0F994FF056
:10369000000B91461093009211B9791C00EB0109BF
:1036A000B7EB090003D4C0F1FF3B07F10109A9EB17
:1036B0000700019042E0012F00DA01270021112FBD
:1036C00001DD112000E03846CDE9000104A90CA875
:1036D000FFF7B4FCDDE90D010C9A00914FF0000BEF
:1036E000B946109221070FD4009A4A4503DA914651
:1036F00001E0A9F10109B9F1010F05DD109AA9F165
:103700000101515C3029F4D0B84202DA10F1040F03
:1037100003DA0121CDE9011010E0002803DC834425
:10372000A9EB000102E0411C494500DD8946A0EB00
:103730000B00401C01904FF000400290200705D480
:103740000198484502DB4FF0FF30019000208DF8D2
:103750004B0002980DF14B07B0F1004F25D002202D
:103760000C902B200D90029800280CDA4042029019
:103770002D200D9007E00A210298FCF777FF3031E9
:10378000029007F8011D0C99481E0C900029F2DCEC
:1037900002980028EFD1791E0D980870307800F05B
:1037A000200040F0450007F8020D11A8C01BC01D05
:1037B00002901398007800B1012000EB09010198F4
:1037C00001EBE071029801440398401A401E0390F7
:1037D000E00306D453462146179A039800F05CF89C
:1037E00005441398007818B15246179990476D1CFC
:1037F000E00323D553462146179A039800F04CF86E
:1038000005441BE0BBF1000F07DB0098584504DDC1
:103810001098179910F80B0001E0179930205246C4
:10382000904701980BF1010B401E05F10105019035
:1038300004D12E205246179990476D1CB9F1000112
:10384000A9F10109DEDC05E017F8010B52461799D2
:1038500090476D1C0299481E02900029F4DC5346E3
:103860002146179A03989EE62D0000002B000000C9
:10387000200000002DE9F041044600251E461746B1
:10388000880404D405E039462020B0476D1C641E2E
:10389000F9D52846BDE8F0812DE9F0410446002520
:1038A0001E469046C80301D5302700E02027880433
:1038B00004D505E041463846B0476D1C641EF9D575
:1038C0002846BDE8F08170B504460D46E0B2FEF72B
:1038D00007FF204670BD0000FEF754FBFEF7FAFA22
:1038E00004A0FFF78BFB03E0FEF792FCFEF789FCD8
:1038F000FAE70000496E69742053797374656D208E
:10390000686173206265656E2066696E69736865BB
:10391000642E0D0A000000000300000000000000FB
:103920001D508E782D2BED3FAE1B23D71299F7BF7C
:103930001D508E782D2BED3F03000000000000008D
:10394000000000000000F03FAE1B23D71299F7BF24
:10395000B69C1CF15A56EA3F03000000000000002C
:10396000A9D198A13411EE3F704CF6792295E2BFAF
:10397000A9D198A13411EE3F03000000000000001F
:10398000000000000000F03F704CF6792295E2BF85
:1039900051A331436922EC3F030000000000000006
:1039A000A9D198A13411EE3FD897C78D2B53F83F7A
:1039B000A9D198A13411EE3F0300000000000000DF
:1039C000000000000000F03FD897C78D2B53F83F50
:1039D00051A331436922EC3F0100000003000000C5
:1039E00001000000000000006A5B789A3B86BB3F44
:1039F00000000000000000000000000000000000C7
:103A0000000000000000F03F000000000000004047
:103A1000000000000000F03FB108FAAF2085EC3F45
:103A20000000000000000000000000000000000096
:103A30000100000003000000010000000000000081
:103A4000000000000000F03F000000000000000047
:103A50000000000000000000000000000000F03F37
:103A60005AFC9C087C77F0BFE45AECBC2B64DD3F29
:103A7000000000000000F03F000000000000000017
:103A80000000000000000000A83A0008000000202C
:103A9000BC020000D8080008443C0008BC0200201A
:103AA0000C5C00002C300008A11A0102690A011BFD
:103AB00014088008182F097F09FD09780AF10A67A0
:103AC0000BDA0B490CB30C190D790DD40D290E78B6
:103AD0000EC00E020F3C0F6F0F9B0FBF0FDB0FEFDF
:103AE0000FFB0FFF041AEF0C1ABF141A6F1C1C02F5
:103AF0000FC0281C290ED4341810190DB30C490C12
:103B0000DA0B670BF10A780AFD58111A09601023C5
:103B1000087F07FF068006020687050E0598042524
:103B200004B6034C03E60286022B02D60187013F4E
:103B300001FD12C3129012641240122412103204BA
:103B40001A04081A24101A641812C312FD1A3F2806
:103B50001CD6012B341810E6024C03B6032504983A
:103B6000040E05870502580564FF067F071AFFFC4F
:103B7000095E0221125212A412F6102B480199017B
:103B8000EB013D028F02E10233038503D7032904D1
:103B90007B04CD041E057005C20514066606B80632
:103BA0000A075C07AE071831085108A308F5084753
:103BB000099909EB093D0A8F0AE10A330B840BD6F8
:103BC0000B280C7A0CCC0C1E0D700DC20D140E6659
:103BD0000EB70E090F5B0FAD661AAD081C090FB7C3
:103BE000141C140EC2201C1E0DCC2C1C280CD63804
:103BF0001C330BE1441C3D0AEB501C4709F55C13D8
:103C000051081B08AE6C1C0A07B8781C1406C28445
:103C10001C1E05CD901C2904D79C1C3303E1A81C55
:103C20003D02EBB41C4801F6C072522D01020304A0
:103C3000047009060708090204060884A24A0469F8
:043C40001E41000021
:0400000508000131BD
:00000001FF
